{
  "contractName": "Farmer",
  "abi": [
    {
      "inputs": [],
      "stateMutability": "nonpayable",
      "type": "constructor"
    },
    {
      "inputs": [
        {
          "internalType": "address",
          "name": "",
          "type": "address"
        },
        {
          "internalType": "uint256",
          "name": "",
          "type": "uint256"
        }
      ],
      "name": "_farmerRawProducts",
      "outputs": [
        {
          "internalType": "string",
          "name": "",
          "type": "string"
        }
      ],
      "stateMutability": "view",
      "type": "function",
      "constant": true
    },
    {
      "inputs": [
        {
          "internalType": "string",
          "name": "",
          "type": "string"
        },
        {
          "internalType": "uint256",
          "name": "",
          "type": "uint256"
        }
      ],
      "name": "_rawProductFarmers",
      "outputs": [
        {
          "internalType": "address",
          "name": "",
          "type": "address"
        }
      ],
      "stateMutability": "view",
      "type": "function",
      "constant": true
    },
    {
      "inputs": [],
      "name": "admin",
      "outputs": [
        {
          "internalType": "address",
          "name": "",
          "type": "address"
        }
      ],
      "stateMutability": "view",
      "type": "function",
      "constant": true
    },
    {
      "inputs": [
        {
          "internalType": "address",
          "name": "_id",
          "type": "address"
        }
      ],
      "name": "get",
      "outputs": [
        {
          "components": [
            {
              "internalType": "address",
              "name": "id",
              "type": "address"
            },
            {
              "internalType": "string",
              "name": "name",
              "type": "string"
            },
            {
              "internalType": "string",
              "name": "location",
              "type": "string"
            },
            {
              "internalType": "string",
              "name": "role",
              "type": "string"
            },
            {
              "internalType": "bool",
              "name": "isVerified",
              "type": "bool"
            }
          ],
          "internalType": "struct Stakeholder.stakeholder",
          "name": "",
          "type": "tuple"
        }
      ],
      "stateMutability": "view",
      "type": "function",
      "constant": true
    },
    {
      "inputs": [],
      "name": "getAddresses",
      "outputs": [
        {
          "internalType": "address[]",
          "name": "",
          "type": "address[]"
        }
      ],
      "stateMutability": "view",
      "type": "function",
      "constant": true
    },
    {
      "inputs": [
        {
          "internalType": "address",
          "name": "_id",
          "type": "address"
        }
      ],
      "name": "getRole",
      "outputs": [
        {
          "internalType": "string",
          "name": "",
          "type": "string"
        }
      ],
      "stateMutability": "view",
      "type": "function",
      "constant": true
    },
    {
      "inputs": [
        {
          "internalType": "address",
          "name": "_account",
          "type": "address"
        }
      ],
      "name": "isAdmin",
      "outputs": [
        {
          "internalType": "bool",
          "name": "",
          "type": "bool"
        }
      ],
      "stateMutability": "view",
      "type": "function",
      "constant": true
    },
    {
      "inputs": [
        {
          "internalType": "address",
          "name": "_owner",
          "type": "address"
        },
        {
          "internalType": "address",
          "name": "_operator",
          "type": "address"
        }
      ],
      "name": "isApprovedForAll",
      "outputs": [
        {
          "internalType": "bool",
          "name": "",
          "type": "bool"
        }
      ],
      "stateMutability": "view",
      "type": "function",
      "constant": true
    },
    {
      "inputs": [
        {
          "internalType": "address",
          "name": "_id",
          "type": "address"
        }
      ],
      "name": "isVerified",
      "outputs": [
        {
          "internalType": "bool",
          "name": "",
          "type": "bool"
        }
      ],
      "stateMutability": "view",
      "type": "function",
      "constant": true
    },
    {
      "inputs": [
        {
          "internalType": "string",
          "name": "_name",
          "type": "string"
        },
        {
          "internalType": "string",
          "name": "_location",
          "type": "string"
        },
        {
          "internalType": "string",
          "name": "_role",
          "type": "string"
        }
      ],
      "name": "register",
      "outputs": [
        {
          "internalType": "bool",
          "name": "",
          "type": "bool"
        }
      ],
      "stateMutability": "nonpayable",
      "type": "function"
    },
    {
      "inputs": [
        {
          "internalType": "address",
          "name": "_operator",
          "type": "address"
        },
        {
          "internalType": "bool",
          "name": "_approved",
          "type": "bool"
        }
      ],
      "name": "setApprovalForAll",
      "outputs": [
        {
          "internalType": "bool",
          "name": "",
          "type": "bool"
        }
      ],
      "stateMutability": "nonpayable",
      "type": "function"
    },
    {
      "inputs": [
        {
          "internalType": "address",
          "name": "_from",
          "type": "address"
        },
        {
          "internalType": "address",
          "name": "_to",
          "type": "address"
        },
        {
          "internalType": "uint256",
          "name": "_productId",
          "type": "uint256"
        }
      ],
      "name": "transferFrom",
      "outputs": [
        {
          "internalType": "bool",
          "name": "",
          "type": "bool"
        }
      ],
      "stateMutability": "nonpayable",
      "type": "function"
    },
    {
      "inputs": [
        {
          "internalType": "address",
          "name": "_id",
          "type": "address"
        }
      ],
      "name": "verify",
      "outputs": [
        {
          "internalType": "bool",
          "name": "",
          "type": "bool"
        }
      ],
      "stateMutability": "nonpayable",
      "type": "function"
    },
    {
      "inputs": [
        {
          "internalType": "string",
          "name": "_name",
          "type": "string"
        },
        {
          "internalType": "string",
          "name": "_location",
          "type": "string"
        },
        {
          "internalType": "string",
          "name": "_role",
          "type": "string"
        },
        {
          "internalType": "string[]",
          "name": "_rawProducts",
          "type": "string[]"
        }
      ],
      "name": "registerFarmer",
      "outputs": [
        {
          "internalType": "bool",
          "name": "",
          "type": "bool"
        }
      ],
      "stateMutability": "nonpayable",
      "type": "function"
    },
    {
      "inputs": [
        {
          "internalType": "string",
          "name": "_rawProduct",
          "type": "string"
        }
      ],
      "name": "addRawProduct",
      "outputs": [
        {
          "internalType": "bool",
          "name": "",
          "type": "bool"
        }
      ],
      "stateMutability": "nonpayable",
      "type": "function"
    },
    {
      "inputs": [
        {
          "internalType": "address",
          "name": "_id",
          "type": "address"
        }
      ],
      "name": "getFarmer",
      "outputs": [
        {
          "components": [
            {
              "internalType": "address",
              "name": "id",
              "type": "address"
            },
            {
              "internalType": "string",
              "name": "name",
              "type": "string"
            },
            {
              "internalType": "string",
              "name": "location",
              "type": "string"
            },
            {
              "internalType": "string",
              "name": "role",
              "type": "string"
            },
            {
              "internalType": "bool",
              "name": "isVerified",
              "type": "bool"
            }
          ],
          "internalType": "struct Stakeholder.stakeholder",
          "name": "farmer",
          "type": "tuple"
        },
        {
          "internalType": "string[]",
          "name": "rawProducts",
          "type": "string[]"
        }
      ],
      "stateMutability": "view",
      "type": "function",
      "constant": true
    },
    {
      "inputs": [
        {
          "internalType": "string",
          "name": "_rawProduct",
          "type": "string"
        }
      ],
      "name": "getRawProductFarmers",
      "outputs": [
        {
          "internalType": "address[]",
          "name": "",
          "type": "address[]"
        }
      ],
      "stateMutability": "view",
      "type": "function",
      "constant": true
    }
  ],
  "bytecode": "0x608060405234801561001057600080fd5b5033806000806101000a81548173ffffffffffffffffffffffffffffffffffffffff021916908373ffffffffffffffffffffffffffffffffffffffff16021790555050612efa806100626000396000f3fe608060405234801561001057600080fd5b506004361061010b5760003560e01c8063880f8fd7116100a2578063b9209e3311610071578063b9209e331461033e578063c2bc2efc1461036e578063e7609c161461039e578063e985e9c5146103cf578063f851a440146103ff5761010b565b8063880f8fd714610290578063a22cb465146102c0578063a39fac12146102f0578063af8f44cc1461030e5761010b565b8063518cc0b3116100de578063518cc0b3146101d057806363a9c3d7146102005780637bb08f33146102305780638531358f146102605761010b565b806323b872dd1461011057806324d7806c1461014057806344276733146101705780634cd08d03146101a0575b600080fd5b61012a6004803603810190610125919061201c565b61041d565b60405161013791906129da565b60405180910390f35b61015a60048036038101906101559190611fb7565b6106d0565b60405161016791906129da565b60405180910390f35b61018a60048036038101906101859190611fb7565b610729565b60405161019791906129f5565b60405180910390f35b6101ba60048036038101906101b59190612124565b6107fd565b6040516101c791906129da565b60405180910390f35b6101ea60048036038101906101e591906120a7565b610a7d565b6040516101f791906129f5565b60405180910390f35b61021a60048036038101906102159190611fb7565b610b36565b60405161022791906129da565b60405180910390f35b61024a600480360381019061024591906121bb565b610bf4565b60405161025791906129da565b60405180910390f35b61027a6004803603810190610275919061227e565b610fa8565b604051610287919061299d565b60405180910390f35b6102aa60048036038101906102a591906120e3565b61100c565b6040516102b791906129da565b60405180910390f35b6102da60048036038101906102d5919061206b565b611290565b6040516102e791906129da565b60405180910390f35b6102f861140f565b60405161030591906129b8565b60405180910390f35b610328600480360381019061032391906120e3565b61149d565b60405161033591906129b8565b60405180910390f35b61035860048036038101906103539190611fb7565b611549565b60405161036591906129da565b60405180910390f35b61038860048036038101906103839190611fb7565b6115a2565b6040516103959190612b37565b60405180910390f35b6103b860048036038101906103b39190611fb7565b61198d565b6040516103c6929190612b59565b60405180910390f35b6103e960048036038101906103e49190611fe0565b611c23565b6040516103f691906129da565b60405180910390f35b610407611cb7565b604051610414919061299d565b60405180910390f35b600083826000600260008473ffffffffffffffffffffffffffffffffffffffff1673ffffffffffffffffffffffffffffffffffffffff168152602001908152602001600020600083815260200190815260200160002060009054906101000a900460ff169050600061048f8433611c23565b806104c557508373ffffffffffffffffffffffffffffffffffffffff163373ffffffffffffffffffffffffffffffffffffffff16145b90508180156104d15750805b610510576040517f08c379a000000000000000000000000000000000000000000000000000000000815260040161050790612af7565b60405180910390fd5b8673ffffffffffffffffffffffffffffffffffffffff168873ffffffffffffffffffffffffffffffffffffffff16141561057f576040517f08c379a000000000000000000000000000000000000000000000000000000000815260040161057690612ab7565b60405180910390fd5b600073ffffffffffffffffffffffffffffffffffffffff168773ffffffffffffffffffffffffffffffffffffffff1614156105ef576040517f08c379a00000000000000000000000000000000000000000000000000000000081526004016105e690612a77565b60405180910390fd5b6000600260008a73ffffffffffffffffffffffffffffffffffffffff1673ffffffffffffffffffffffffffffffffffffffff168152602001908152602001600020600088815260200190815260200160002060006101000a81548160ff0219169083151502179055506001600260008973ffffffffffffffffffffffffffffffffffffffff1673ffffffffffffffffffffffffffffffffffffffff168152602001908152602001600020600088815260200190815260200160002060006101000a81548160ff02191690831515021790555060019450505050509392505050565b60008060009054906101000a900473ffffffffffffffffffffffffffffffffffffffff1673ffffffffffffffffffffffffffffffffffffffff168273ffffffffffffffffffffffffffffffffffffffff16149050919050565b6060600160008373ffffffffffffffffffffffffffffffffffffffff1673ffffffffffffffffffffffffffffffffffffffff168152602001908152602001600020600301805461077890612d66565b80601f01602080910402602001604051908101604052809291908181526020018280546107a490612d66565b80156107f15780601f106107c6576101008083540402835291602001916107f1565b820191906000526020600020905b8154815290600101906020018083116107d457829003601f168201915b50505050509050919050565b60008073ffffffffffffffffffffffffffffffffffffffff16600160003373ffffffffffffffffffffffffffffffffffffffff1673ffffffffffffffffffffffffffffffffffffffff16815260200190815260200160002060000160009054906101000a900473ffffffffffffffffffffffffffffffffffffffff1673ffffffffffffffffffffffffffffffffffffffff16146108cf576040517f08c379a00000000000000000000000000000000000000000000000000000000081526004016108c690612ad7565b60405180910390fd5b6040518060a001604052803373ffffffffffffffffffffffffffffffffffffffff16815260200185815260200184815260200183815260200160001515815250600160003373ffffffffffffffffffffffffffffffffffffffff1673ffffffffffffffffffffffffffffffffffffffff16815260200190815260200160002060008201518160000160006101000a81548173ffffffffffffffffffffffffffffffffffffffff021916908373ffffffffffffffffffffffffffffffffffffffff16021790555060208201518160010190805190602001906109b1929190611cdb565b5060408201518160020190805190602001906109ce929190611cdb565b5060608201518160030190805190602001906109eb929190611cdb565b5060808201518160040160006101000a81548160ff0219169083151502179055509050506004339080600181540180825580915050600190039060005260206000200160009091909190916101000a81548173ffffffffffffffffffffffffffffffffffffffff021916908373ffffffffffffffffffffffffffffffffffffffff160217905550600190509392505050565b60056020528160005260406000208181548110610a9957600080fd5b90600052602060002001600091509150508054610ab590612d66565b80601f0160208091040260200160405190810160405280929190818152602001828054610ae190612d66565b8015610b2e5780601f10610b0357610100808354040283529160200191610b2e565b820191906000526020600020905b815481529060010190602001808311610b1157829003601f168201915b505050505081565b60008060009054906101000a900473ffffffffffffffffffffffffffffffffffffffff1673ffffffffffffffffffffffffffffffffffffffff163373ffffffffffffffffffffffffffffffffffffffff1614610b9157600080fd5b60018060008473ffffffffffffffffffffffffffffffffffffffff1673ffffffffffffffffffffffffffffffffffffffff16815260200190815260200160002060040160006101000a81548160ff02191690831515021790555060019050919050565b60008073ffffffffffffffffffffffffffffffffffffffff16600160003373ffffffffffffffffffffffffffffffffffffffff1673ffffffffffffffffffffffffffffffffffffffff16815260200190815260200160002060000160009054906101000a900473ffffffffffffffffffffffffffffffffffffffff1673ffffffffffffffffffffffffffffffffffffffff1614610cc6576040517f08c379a0000000000000000000000000000000000000000000000000000000008152600401610cbd90612a37565b60405180910390fd5b6040518060a001604052803373ffffffffffffffffffffffffffffffffffffffff16815260200186815260200185815260200184815260200160001515815250600160003373ffffffffffffffffffffffffffffffffffffffff1673ffffffffffffffffffffffffffffffffffffffff16815260200190815260200160002060008201518160000160006101000a81548173ffffffffffffffffffffffffffffffffffffffff021916908373ffffffffffffffffffffffffffffffffffffffff1602179055506020820151816001019080519060200190610da8929190611cdb565b506040820151816002019080519060200190610dc5929190611cdb565b506060820151816003019080519060200190610de2929190611cdb565b5060808201518160040160006101000a81548160ff02191690831515021790555090505081600560003373ffffffffffffffffffffffffffffffffffffffff1673ffffffffffffffffffffffffffffffffffffffff1681526020019081526020016000209080519060200190610e59929190611d61565b5060005b8251811015610f38576006838281518110610ea1577f4e487b7100000000000000000000000000000000000000000000000000000000600052603260045260246000fd5b6020026020010151604051610eb6919061296f565b9081526020016040518091039020339080600181540180825580915050600190039060005260206000200160009091909190916101000a81548173ffffffffffffffffffffffffffffffffffffffff021916908373ffffffffffffffffffffffffffffffffffffffff1602179055508080610f3090612d98565b915050610e5d565b506004339080600181540180825580915050600190039060005260206000200160009091909190916101000a81548173ffffffffffffffffffffffffffffffffffffffff021916908373ffffffffffffffffffffffffffffffffffffffff16021790555060019050949350505050565b6006828051602081018201805184825260208301602085012081835280955050505050508181548110610fda57600080fd5b906000526020600020016000915091509054906101000a900473ffffffffffffffffffffffffffffffffffffffff1681565b6000806000905060005b600560003373ffffffffffffffffffffffffffffffffffffffff1673ffffffffffffffffffffffffffffffffffffffff1681526020019081526020016000208054905081101561114c5783604051602001611071919061296f565b60405160208183030381529060405280519060200120600560003373ffffffffffffffffffffffffffffffffffffffff1673ffffffffffffffffffffffffffffffffffffffff16815260200190815260200160002082815481106110fe577f4e487b7100000000000000000000000000000000000000000000000000000000600052603260045260246000fd5b906000526020600020016040516020016111189190612986565b60405160208183030381529060405280519060200120141561113957600191505b808061114490612d98565b915050611016565b50801561118e576040517f08c379a000000000000000000000000000000000000000000000000000000000815260040161118590612a17565b60405180910390fd5b600560003373ffffffffffffffffffffffffffffffffffffffff1673ffffffffffffffffffffffffffffffffffffffff16815260200190815260200160002083908060018154018082558091505060019003906000526020600020016000909190919091509080519060200190611206929190611cdb565b50600683604051611217919061296f565b9081526020016040518091039020339080600181540180825580915050600190039060005260206000200160009091909190916101000a81548173ffffffffffffffffffffffffffffffffffffffff021916908373ffffffffffffffffffffffffffffffffffffffff1602179055506001915050919050565b60008273ffffffffffffffffffffffffffffffffffffffff163373ffffffffffffffffffffffffffffffffffffffff161415611301576040517f08c379a00000000000000000000000000000000000000000000000000000000081526004016112f890612a57565b60405180910390fd5b600073ffffffffffffffffffffffffffffffffffffffff168373ffffffffffffffffffffffffffffffffffffffff161415611371576040517f08c379a000000000000000000000000000000000000000000000000000000000815260040161136890612b17565b60405180910390fd5b81600360003373ffffffffffffffffffffffffffffffffffffffff1673ffffffffffffffffffffffffffffffffffffffff16815260200190815260200160002060008573ffffffffffffffffffffffffffffffffffffffff1673ffffffffffffffffffffffffffffffffffffffff16815260200190815260200160002060006101000a81548160ff0219169083151502179055506001905092915050565b6060600480548060200260200160405190810160405280929190818152602001828054801561149357602002820191906000526020600020905b8160009054906101000a900473ffffffffffffffffffffffffffffffffffffffff1673ffffffffffffffffffffffffffffffffffffffff1681526020019060010190808311611449575b5050505050905090565b60606006826040516114af919061296f565b908152602001604051809103902080548060200260200160405190810160405280929190818152602001828054801561153d57602002820191906000526020600020905b8160009054906101000a900473ffffffffffffffffffffffffffffffffffffffff1673ffffffffffffffffffffffffffffffffffffffff16815260200190600101908083116114f3575b50505050509050919050565b6000600160008373ffffffffffffffffffffffffffffffffffffffff1673ffffffffffffffffffffffffffffffffffffffff16815260200190815260200160002060040160009054906101000a900460ff169050919050565b6115aa611dc1565b81600160003373ffffffffffffffffffffffffffffffffffffffff1673ffffffffffffffffffffffffffffffffffffffff16815260200190815260200160002060000160009054906101000a900473ffffffffffffffffffffffffffffffffffffffff1673ffffffffffffffffffffffffffffffffffffffff168173ffffffffffffffffffffffffffffffffffffffff1614806116d55750600073ffffffffffffffffffffffffffffffffffffffff16600160003373ffffffffffffffffffffffffffffffffffffffff1673ffffffffffffffffffffffffffffffffffffffff16815260200190815260200160002060000160009054906101000a900473ffffffffffffffffffffffffffffffffffffffff1673ffffffffffffffffffffffffffffffffffffffff16145b611714576040517f08c379a000000000000000000000000000000000000000000000000000000000815260040161170b90612a97565b60405180910390fd5b600160008473ffffffffffffffffffffffffffffffffffffffff1673ffffffffffffffffffffffffffffffffffffffff1681526020019081526020016000206040518060a00160405290816000820160009054906101000a900473ffffffffffffffffffffffffffffffffffffffff1673ffffffffffffffffffffffffffffffffffffffff1673ffffffffffffffffffffffffffffffffffffffff1681526020016001820180546117c490612d66565b80601f01602080910402602001604051908101604052809291908181526020018280546117f090612d66565b801561183d5780601f106118125761010080835404028352916020019161183d565b820191906000526020600020905b81548152906001019060200180831161182057829003601f168201915b5050505050815260200160028201805461185690612d66565b80601f016020809104026020016040519081016040528092919081815260200182805461188290612d66565b80156118cf5780601f106118a4576101008083540402835291602001916118cf565b820191906000526020600020905b8154815290600101906020018083116118b257829003601f168201915b505050505081526020016003820180546118e890612d66565b80601f016020809104026020016040519081016040528092919081815260200182805461191490612d66565b80156119615780601f1061193657610100808354040283529160200191611961565b820191906000526020600020905b81548152906001019060200180831161194457829003601f168201915b505050505081526020016004820160009054906101000a900460ff161515151581525050915050919050565b611995611dc1565b606082600160003373ffffffffffffffffffffffffffffffffffffffff1673ffffffffffffffffffffffffffffffffffffffff16815260200190815260200160002060000160009054906101000a900473ffffffffffffffffffffffffffffffffffffffff1673ffffffffffffffffffffffffffffffffffffffff168173ffffffffffffffffffffffffffffffffffffffff161480611ac25750600073ffffffffffffffffffffffffffffffffffffffff16600160003373ffffffffffffffffffffffffffffffffffffffff1673ffffffffffffffffffffffffffffffffffffffff16815260200190815260200160002060000160009054906101000a900473ffffffffffffffffffffffffffffffffffffffff1673ffffffffffffffffffffffffffffffffffffffff16145b611b01576040517f08c379a0000000000000000000000000000000000000000000000000000000008152600401611af890612a97565b60405180910390fd5b611b0a846115a2565b9250600560008573ffffffffffffffffffffffffffffffffffffffff1673ffffffffffffffffffffffffffffffffffffffff168152602001908152602001600020805480602002602001604051908101604052809291908181526020016000905b82821015611c17578382906000526020600020018054611b8a90612d66565b80601f0160208091040260200160405190810160405280929190818152602001828054611bb690612d66565b8015611c035780601f10611bd857610100808354040283529160200191611c03565b820191906000526020600020905b815481529060010190602001808311611be657829003601f168201915b505050505081526020019060010190611b6b565b50505050915050915091565b6000600360008473ffffffffffffffffffffffffffffffffffffffff1673ffffffffffffffffffffffffffffffffffffffff16815260200190815260200160002060008373ffffffffffffffffffffffffffffffffffffffff1673ffffffffffffffffffffffffffffffffffffffff16815260200190815260200160002060009054906101000a900460ff16905092915050565b60008054906101000a900473ffffffffffffffffffffffffffffffffffffffff1681565b828054611ce790612d66565b90600052602060002090601f016020900481019282611d095760008555611d50565b82601f10611d2257805160ff1916838001178555611d50565b82800160010185558215611d50579182015b82811115611d4f578251825591602001919060010190611d34565b5b509050611d5d9190611e08565b5090565b828054828255906000526020600020908101928215611db0579160200282015b82811115611daf578251829080519060200190611d9f929190611cdb565b5091602001919060010190611d81565b5b509050611dbd9190611e25565b5090565b6040518060a00160405280600073ffffffffffffffffffffffffffffffffffffffff1681526020016060815260200160608152602001606081526020016000151581525090565b5b80821115611e21576000816000905550600101611e09565b5090565b5b80821115611e455760008181611e3c9190611e49565b50600101611e26565b5090565b508054611e5590612d66565b6000825580601f10611e675750611e86565b601f016020900490600052602060002090810190611e859190611e08565b5b50565b6000611e9c611e9784612bc1565b612b90565b9050808382526020820190508260005b85811015611edc5781358501611ec28882611f78565b845260208401935060208301925050600181019050611eac565b5050509392505050565b6000611ef9611ef484612bed565b612b90565b905082815260208101848484011115611f1157600080fd5b611f1c848285612d24565b509392505050565b600081359050611f3381612e7f565b92915050565b600082601f830112611f4a57600080fd5b8135611f5a848260208601611e89565b91505092915050565b600081359050611f7281612e96565b92915050565b600082601f830112611f8957600080fd5b8135611f99848260208601611ee6565b91505092915050565b600081359050611fb181612ead565b92915050565b600060208284031215611fc957600080fd5b6000611fd784828501611f24565b91505092915050565b60008060408385031215611ff357600080fd5b600061200185828601611f24565b925050602061201285828601611f24565b9150509250929050565b60008060006060848603121561203157600080fd5b600061203f86828701611f24565b935050602061205086828701611f24565b925050604061206186828701611fa2565b9150509250925092565b6000806040838503121561207e57600080fd5b600061208c85828601611f24565b925050602061209d85828601611f63565b9150509250929050565b600080604083850312156120ba57600080fd5b60006120c885828601611f24565b92505060206120d985828601611fa2565b9150509250929050565b6000602082840312156120f557600080fd5b600082013567ffffffffffffffff81111561210f57600080fd5b61211b84828501611f78565b91505092915050565b60008060006060848603121561213957600080fd5b600084013567ffffffffffffffff81111561215357600080fd5b61215f86828701611f78565b935050602084013567ffffffffffffffff81111561217c57600080fd5b61218886828701611f78565b925050604084013567ffffffffffffffff8111156121a557600080fd5b6121b186828701611f78565b9150509250925092565b600080600080608085870312156121d157600080fd5b600085013567ffffffffffffffff8111156121eb57600080fd5b6121f787828801611f78565b945050602085013567ffffffffffffffff81111561221457600080fd5b61222087828801611f78565b935050604085013567ffffffffffffffff81111561223d57600080fd5b61224987828801611f78565b925050606085013567ffffffffffffffff81111561226657600080fd5b61227287828801611f39565b91505092959194509250565b6000806040838503121561229157600080fd5b600083013567ffffffffffffffff8111156122ab57600080fd5b6122b785828601611f78565b92505060206122c885828601611fa2565b9150509250929050565b60006122de83836122fe565b60208301905092915050565b60006122f6838361240d565b905092915050565b61230781612cdc565b82525050565b61231681612cdc565b82525050565b600061232782612c52565b6123318185612c8d565b935061233c83612c1d565b8060005b8381101561236d57815161235488826122d2565b975061235f83612c73565b925050600181019050612340565b5085935050505092915050565b600061238582612c5d565b61238f8185612c9e565b9350836020820285016123a185612c2d565b8060005b858110156123dd57848403895281516123be85826122ea565b94506123c983612c80565b925060208a019950506001810190506123a5565b50829750879550505050505092915050565b6123f881612cee565b82525050565b61240781612cee565b82525050565b600061241882612c68565b6124228185612caf565b9350612432818560208601612d33565b61243b81612e6e565b840191505092915050565b600061245182612c68565b61245b8185612cc0565b935061246b818560208601612d33565b61247481612e6e565b840191505092915050565b600061248a82612c68565b6124948185612cd1565b93506124a4818560208601612d33565b80840191505092915050565b600081546124bd81612d66565b6124c78186612cd1565b945060018216600081146124e257600181146124f357612526565b60ff19831686528186019350612526565b6124fc85612c3d565b60005b8381101561251e578154818901526001820191506020810190506124ff565b838801955050505b50505092915050565b600061253c603083612cc0565b91507f4661726d65723a3a61646452617750726f647563743a205261772070726f647560008301527f637420616c7265616479206164646564000000000000000000000000000000006020830152604082019050919050565b60006125a2603183612cc0565b91507f4661726d65723a3a72656769737465724661726d65723a204661726d6572206160008301527f6c726561647920726567697374657265640000000000000000000000000000006020830152604082019050919050565b6000612608603c83612cc0565b91507f5374616b65686f6c6465723a3a736574417070726f76616c466f72416c6c3a2060008301527f43616e6e6f742073657420617070726f76616c20666f722073656c66000000006020830152604082019050919050565b600061266e603a83612cc0565b91507f5374616b65686f6c6465723a3a7472616e7366657246726f6d3a2043616e6e6f60008301527f74207472616e7366657220746f206e756c6c20616464726573730000000000006020830152604082019050919050565b60006126d4602983612cc0565b91507f4f6e6c79207374616b65686f6c6465722063616e20616363657373207468697360008301527f2066756e6374696f6e00000000000000000000000000000000000000000000006020830152604082019050919050565b600061273a603283612cc0565b91507f5374616b65686f6c6465723a3a7472616e7366657246726f6d3a2043616e6e6f60008301527f74207472616e7366657220746f2073656c6600000000000000000000000000006020830152604082019050919050565b60006127a0603583612cc0565b91507f5374616b65686f6c6465723a3a72656769737465723a205374616b65686f6c6460008301527f657220616c7265616479207265676973746572656400000000000000000000006020830152604082019050919050565b6000612806602f83612cc0565b91507f4f6e6c79206f776e6572206f7220617070726f7665642063616e20616363657360008301527f7320746869732066756e6374696f6e00000000000000000000000000000000006020830152604082019050919050565b600061286c604483612cc0565b91507f5374616b65686f6c6465723a3a736574417070726f76616c466f72416c6c3a2060008301527f43616e6e6f742073657420617070726f76616c20666f72206e756c6c2061646460208301527f72657373000000000000000000000000000000000000000000000000000000006040830152606082019050919050565b600060a08301600083015161290360008601826122fe565b506020830151848203602086015261291b828261240d565b91505060408301518482036040860152612935828261240d565b9150506060830151848203606086015261294f828261240d565b915050608083015161296460808601826123ef565b508091505092915050565b600061297b828461247f565b915081905092915050565b600061299282846124b0565b915081905092915050565b60006020820190506129b2600083018461230d565b92915050565b600060208201905081810360008301526129d2818461231c565b905092915050565b60006020820190506129ef60008301846123fe565b92915050565b60006020820190508181036000830152612a0f8184612446565b905092915050565b60006020820190508181036000830152612a308161252f565b9050919050565b60006020820190508181036000830152612a5081612595565b9050919050565b60006020820190508181036000830152612a70816125fb565b9050919050565b60006020820190508181036000830152612a9081612661565b9050919050565b60006020820190508181036000830152612ab0816126c7565b9050919050565b60006020820190508181036000830152612ad08161272d565b9050919050565b60006020820190508181036000830152612af081612793565b9050919050565b60006020820190508181036000830152612b10816127f9565b9050919050565b60006020820190508181036000830152612b308161285f565b9050919050565b60006020820190508181036000830152612b5181846128eb565b905092915050565b60006040820190508181036000830152612b7381856128eb565b90508181036020830152612b87818461237a565b90509392505050565b6000604051905081810181811067ffffffffffffffff82111715612bb757612bb6612e3f565b5b8060405250919050565b600067ffffffffffffffff821115612bdc57612bdb612e3f565b5b602082029050602081019050919050565b600067ffffffffffffffff821115612c0857612c07612e3f565b5b601f19601f8301169050602081019050919050565b6000819050602082019050919050565b6000819050602082019050919050565b60008190508160005260206000209050919050565b600081519050919050565b600081519050919050565b600081519050919050565b6000602082019050919050565b6000602082019050919050565b600082825260208201905092915050565b600082825260208201905092915050565b600082825260208201905092915050565b600082825260208201905092915050565b600081905092915050565b6000612ce782612cfa565b9050919050565b60008115159050919050565b600073ffffffffffffffffffffffffffffffffffffffff82169050919050565b6000819050919050565b82818337600083830152505050565b60005b83811015612d51578082015181840152602081019050612d36565b83811115612d60576000848401525b50505050565b60006002820490506001821680612d7e57607f821691505b60208210811415612d9257612d91612e10565b5b50919050565b6000612da382612d1a565b91507fffffffffffffffffffffffffffffffffffffffffffffffffffffffffffffffff821415612dd657612dd5612de1565b5b600182019050919050565b7f4e487b7100000000000000000000000000000000000000000000000000000000600052601160045260246000fd5b7f4e487b7100000000000000000000000000000000000000000000000000000000600052602260045260246000fd5b7f4e487b7100000000000000000000000000000000000000000000000000000000600052604160045260246000fd5b6000601f19601f8301169050919050565b612e8881612cdc565b8114612e9357600080fd5b50565b612e9f81612cee565b8114612eaa57600080fd5b50565b612eb681612d1a565b8114612ec157600080fd5b5056fea264697066735822122001183253cd54ca15948cc060b849edc85d4e7af9bad4e135ea97c4407d5d88f764736f6c63430008000033",
  "immutableReferences": {},
  "source": "// SPDX-License-Identifier: Unlicensed\npragma solidity ^0.8.0;\nimport './Stakeholder.sol';\ncontract Farmer is Stakeholder {\n  mapping(address => string[]) public _farmerRawProducts;\n  mapping(string => address[]) public _rawProductFarmers;\n\n  constructor() Stakeholder() {}\n\n  function registerFarmer(\n    string memory _name, \n    string memory _location, \n    string memory _role,\n    string[] memory _rawProducts\n  ) public returns (bool) {\n    require (_stakeholders[msg.sender].id ==  address(0), \"Farmer::registerFarmer: Farmer already registered\");\n    _stakeholders[msg.sender] = stakeholder(msg.sender, _name, _location, _role, false);\n    _farmerRawProducts[msg.sender] = _rawProducts;\n    for (uint i = 0; i < _rawProducts.length; i++) {\n      _rawProductFarmers[_rawProducts[i]].push(msg.sender);\n    }\n    _stakeholderAddresses.push(msg.sender);\n    return true;\n  }\n\n  function addRawProduct(string memory _rawProduct) public returns (bool) {\n    bool productAlreadyAdded = false;\n    for (uint i = 0; i < _farmerRawProducts[msg.sender].length; i++) {\n      if (keccak256(abi.encodePacked((_farmerRawProducts[msg.sender][i]))) == keccak256(abi.encodePacked((_rawProduct)))) {\n        productAlreadyAdded = true;\n      }\n    }\n    require(!productAlreadyAdded, \"Farmer::addRawProduct: Raw product already added\");\n    _farmerRawProducts[msg.sender].push(_rawProduct);\n    _rawProductFarmers[_rawProduct].push(msg.sender);\n    return true;\n  }\n\n  function getFarmer(address _id) public view onlyStakeholder(_id) returns(\n    stakeholder memory farmer,\n    string[] memory rawProducts\n  ){\n    farmer = super.get(_id);\n    rawProducts = _farmerRawProducts[_id];\n  }\n\n  function getRawProductFarmers(string memory _rawProduct) public view returns (address[] memory) {\n    return _rawProductFarmers[_rawProduct];\n  }\n\n}",
  "sourcePath": "D:\\MIT Academy of Engineering\\Major Project\\Major_Project_Code\\supply-chain-dev\\src\\Smart-Contract\\Contracts\\Farmer.sol",
  "compiler": {
    "name": "solc",
    "version": "0.8.0+commit.c7dfd78e.Emscripten.clang"
  },
  "schemaVersion": "3.2.3",
  "updatedAt": "2023-06-08T14:15:34.311Z",
  "networkType": "ethereum",
  "devdoc": {
    "kind": "dev",
    "methods": {},
    "version": 1
  },
  "userdoc": {
    "kind": "user",
    "methods": {},
    "version": 1
  }
}