{
  "contractName": "Manufacturer",
  "abi": [
    {
      "inputs": [],
      "stateMutability": "nonpayable",
      "type": "constructor"
    },
    {
      "inputs": [
        {
          "internalType": "address",
          "name": "",
          "type": "address"
        }
      ],
      "name": "_isRenewableUsed",
      "outputs": [
        {
          "internalType": "bool",
          "name": "",
          "type": "bool"
        }
      ],
      "stateMutability": "view",
      "type": "function",
      "constant": true
    },
    {
      "inputs": [
        {
          "internalType": "address",
          "name": "",
          "type": "address"
        },
        {
          "internalType": "uint256",
          "name": "",
          "type": "uint256"
        }
      ],
      "name": "_launchedProducts",
      "outputs": [
        {
          "internalType": "uint256",
          "name": "",
          "type": "uint256"
        }
      ],
      "stateMutability": "view",
      "type": "function",
      "constant": true
    },
    {
      "inputs": [
        {
          "internalType": "address",
          "name": "",
          "type": "address"
        },
        {
          "internalType": "string",
          "name": "",
          "type": "string"
        },
        {
          "internalType": "uint256",
          "name": "",
          "type": "uint256"
        }
      ],
      "name": "_rawProductSuppliers",
      "outputs": [
        {
          "internalType": "address",
          "name": "",
          "type": "address"
        }
      ],
      "stateMutability": "view",
      "type": "function",
      "constant": true
    },
    {
      "inputs": [
        {
          "internalType": "address",
          "name": "",
          "type": "address"
        },
        {
          "internalType": "string",
          "name": "",
          "type": "string"
        }
      ],
      "name": "_rawProductVerified",
      "outputs": [
        {
          "internalType": "bool",
          "name": "",
          "type": "bool"
        }
      ],
      "stateMutability": "view",
      "type": "function",
      "constant": true
    },
    {
      "inputs": [
        {
          "internalType": "address",
          "name": "",
          "type": "address"
        },
        {
          "internalType": "uint256",
          "name": "",
          "type": "uint256"
        }
      ],
      "name": "_rawProducts",
      "outputs": [
        {
          "internalType": "string",
          "name": "",
          "type": "string"
        }
      ],
      "stateMutability": "view",
      "type": "function",
      "constant": true
    },
    {
      "inputs": [],
      "name": "admin",
      "outputs": [
        {
          "internalType": "address",
          "name": "",
          "type": "address"
        }
      ],
      "stateMutability": "view",
      "type": "function",
      "constant": true
    },
    {
      "inputs": [
        {
          "internalType": "address",
          "name": "_id",
          "type": "address"
        }
      ],
      "name": "get",
      "outputs": [
        {
          "components": [
            {
              "internalType": "address",
              "name": "id",
              "type": "address"
            },
            {
              "internalType": "string",
              "name": "name",
              "type": "string"
            },
            {
              "internalType": "string",
              "name": "location",
              "type": "string"
            },
            {
              "internalType": "string",
              "name": "role",
              "type": "string"
            },
            {
              "internalType": "bool",
              "name": "isVerified",
              "type": "bool"
            }
          ],
          "internalType": "struct Stakeholder.stakeholder",
          "name": "",
          "type": "tuple"
        }
      ],
      "stateMutability": "view",
      "type": "function",
      "constant": true
    },
    {
      "inputs": [],
      "name": "getAddresses",
      "outputs": [
        {
          "internalType": "address[]",
          "name": "",
          "type": "address[]"
        }
      ],
      "stateMutability": "view",
      "type": "function",
      "constant": true
    },
    {
      "inputs": [
        {
          "internalType": "address",
          "name": "_id",
          "type": "address"
        }
      ],
      "name": "getRole",
      "outputs": [
        {
          "internalType": "string",
          "name": "",
          "type": "string"
        }
      ],
      "stateMutability": "view",
      "type": "function",
      "constant": true
    },
    {
      "inputs": [
        {
          "internalType": "address",
          "name": "_account",
          "type": "address"
        }
      ],
      "name": "isAdmin",
      "outputs": [
        {
          "internalType": "bool",
          "name": "",
          "type": "bool"
        }
      ],
      "stateMutability": "view",
      "type": "function",
      "constant": true
    },
    {
      "inputs": [
        {
          "internalType": "address",
          "name": "_owner",
          "type": "address"
        },
        {
          "internalType": "address",
          "name": "_operator",
          "type": "address"
        }
      ],
      "name": "isApprovedForAll",
      "outputs": [
        {
          "internalType": "bool",
          "name": "",
          "type": "bool"
        }
      ],
      "stateMutability": "view",
      "type": "function",
      "constant": true
    },
    {
      "inputs": [
        {
          "internalType": "address",
          "name": "_id",
          "type": "address"
        }
      ],
      "name": "isVerified",
      "outputs": [
        {
          "internalType": "bool",
          "name": "",
          "type": "bool"
        }
      ],
      "stateMutability": "view",
      "type": "function",
      "constant": true
    },
    {
      "inputs": [
        {
          "internalType": "address",
          "name": "_operator",
          "type": "address"
        },
        {
          "internalType": "bool",
          "name": "_approved",
          "type": "bool"
        }
      ],
      "name": "setApprovalForAll",
      "outputs": [
        {
          "internalType": "bool",
          "name": "",
          "type": "bool"
        }
      ],
      "stateMutability": "nonpayable",
      "type": "function"
    },
    {
      "inputs": [
        {
          "internalType": "address",
          "name": "_from",
          "type": "address"
        },
        {
          "internalType": "address",
          "name": "_to",
          "type": "address"
        },
        {
          "internalType": "uint256",
          "name": "_productId",
          "type": "uint256"
        }
      ],
      "name": "transferFrom",
      "outputs": [
        {
          "internalType": "bool",
          "name": "",
          "type": "bool"
        }
      ],
      "stateMutability": "nonpayable",
      "type": "function"
    },
    {
      "inputs": [
        {
          "internalType": "address",
          "name": "_id",
          "type": "address"
        }
      ],
      "name": "verify",
      "outputs": [
        {
          "internalType": "bool",
          "name": "",
          "type": "bool"
        }
      ],
      "stateMutability": "nonpayable",
      "type": "function"
    },
    {
      "inputs": [
        {
          "internalType": "string",
          "name": "_name",
          "type": "string"
        },
        {
          "internalType": "string",
          "name": "_location",
          "type": "string"
        },
        {
          "internalType": "string",
          "name": "_role",
          "type": "string"
        }
      ],
      "name": "register",
      "outputs": [
        {
          "internalType": "bool",
          "name": "",
          "type": "bool"
        }
      ],
      "stateMutability": "nonpayable",
      "type": "function"
    },
    {
      "inputs": [
        {
          "internalType": "string",
          "name": "_name",
          "type": "string"
        },
        {
          "components": [
            {
              "internalType": "address",
              "name": "id",
              "type": "address"
            },
            {
              "internalType": "bool",
              "name": "isVerified",
              "type": "bool"
            }
          ],
          "internalType": "struct Manufacturer.supplier[]",
          "name": "_suppliers",
          "type": "tuple[]"
        }
      ],
      "name": "addRawProduct",
      "outputs": [
        {
          "internalType": "bool",
          "name": "",
          "type": "bool"
        }
      ],
      "stateMutability": "nonpayable",
      "type": "function"
    },
    {
      "inputs": [
        {
          "internalType": "address",
          "name": "_id",
          "type": "address"
        }
      ],
      "name": "getManufacturerRawProductDetails",
      "outputs": [
        {
          "components": [
            {
              "internalType": "string",
              "name": "name",
              "type": "string"
            },
            {
              "internalType": "address[]",
              "name": "boughtFromIds",
              "type": "address[]"
            },
            {
              "internalType": "bool",
              "name": "isVerified",
              "type": "bool"
            }
          ],
          "internalType": "struct Manufacturer.rawProduct[]",
          "name": "",
          "type": "tuple[]"
        }
      ],
      "stateMutability": "view",
      "type": "function",
      "constant": true
    },
    {
      "inputs": [
        {
          "internalType": "address",
          "name": "id",
          "type": "address"
        }
      ],
      "name": "getManufacturer",
      "outputs": [
        {
          "components": [
            {
              "internalType": "address",
              "name": "id",
              "type": "address"
            },
            {
              "internalType": "string",
              "name": "name",
              "type": "string"
            },
            {
              "internalType": "string",
              "name": "location",
              "type": "string"
            },
            {
              "internalType": "string",
              "name": "role",
              "type": "string"
            },
            {
              "internalType": "bool",
              "name": "isVerified",
              "type": "bool"
            }
          ],
          "internalType": "struct Stakeholder.stakeholder",
          "name": "manufacturer",
          "type": "tuple"
        },
        {
          "internalType": "bool",
          "name": "isRenewableUsed",
          "type": "bool"
        },
        {
          "components": [
            {
              "internalType": "string",
              "name": "name",
              "type": "string"
            },
            {
              "internalType": "address[]",
              "name": "boughtFromIds",
              "type": "address[]"
            },
            {
              "internalType": "bool",
              "name": "isVerified",
              "type": "bool"
            }
          ],
          "internalType": "struct Manufacturer.rawProduct[]",
          "name": "rawProducts",
          "type": "tuple[]"
        },
        {
          "internalType": "uint256[]",
          "name": "launchedProductIds",
          "type": "uint256[]"
        }
      ],
      "stateMutability": "view",
      "type": "function",
      "constant": true
    },
    {
      "inputs": [
        {
          "internalType": "uint256",
          "name": "_id",
          "type": "uint256"
        }
      ],
      "name": "launchProduct",
      "outputs": [
        {
          "internalType": "bool",
          "name": "",
          "type": "bool"
        }
      ],
      "stateMutability": "nonpayable",
      "type": "function"
    },
    {
      "inputs": [
        {
          "internalType": "address",
          "name": "id",
          "type": "address"
        }
      ],
      "name": "updateEnergy",
      "outputs": [
        {
          "internalType": "bool",
          "name": "",
          "type": "bool"
        }
      ],
      "stateMutability": "nonpayable",
      "type": "function"
    }
  ],
  "bytecode": "0x608060405234801561001057600080fd5b5033806000806101000a81548173ffffffffffffffffffffffffffffffffffffffff021916908373ffffffffffffffffffffffffffffffffffffffff1602179055505061378f806100626000396000f3fe608060405234801561001057600080fd5b50600436106101375760003560e01c806363a9c3d7116100b8578063c2bc2efc1161007c578063c2bc2efc146103fd578063ca9840b21461042d578063dfcb137d1461045d578063e985e9c51461048d578063eff5cebf146104bd578063f851a440146104ed57610137565b806363a9c3d71461031f578063a22cb4651461034f578063a39fac121461037f578063ae48e5da1461039d578063b9209e33146103cd57610137565b806344276733116100ff578063442767331461022f57806344a9c5c61461025f5780634afada0a1461028f5780634cd08d03146102bf5780636330a4a8146102ef57610137565b8063191bcef61461013c57806323b872dd1461016f57806324d7806c1461019f5780632cfe63fb146101cf57806340d1a208146101ff575b600080fd5b61015660048036038101906101519190612747565b61050b565b6040516101669493929190613366565b60405180910390f35b610189600480360381019061018491906127ac565b6108f7565b6040516101969190613227565b60405180910390f35b6101b960048036038101906101b49190612747565b610baa565b6040516101c69190613227565b60405180910390f35b6101e960048036038101906101e4919061288b565b610c03565b6040516101f691906131c8565b60405180910390f35b610219600480360381019061021491906128f2565b610c74565b6040516102269190613242565b60405180910390f35b61024960048036038101906102449190612747565b610d2d565b6040516102569190613242565b60405180910390f35b6102796004803603810190610274919061292e565b610e01565b6040516102869190613227565b60405180910390f35b6102a960048036038101906102a49190612837565b611288565b6040516102b69190613227565b60405180910390f35b6102d960048036038101906102d4919061299a565b6112cd565b6040516102e69190613227565b60405180910390f35b61030960048036038101906103049190612747565b6115a5565b6040516103169190613227565b60405180910390f35b61033960048036038101906103349190612747565b6115c5565b6040516103469190613227565b60405180910390f35b610369600480360381019061036491906127fb565b611683565b6040516103769190613227565b60405180910390f35b610387611802565b60405161039491906131e3565b60405180910390f35b6103b760048036038101906103b29190612747565b611890565b6040516103c49190613227565b60405180910390f35b6103e760048036038101906103e29190612747565b61194c565b6040516103f49190613227565b60405180910390f35b61041760048036038101906104129190612747565b6119a5565b6040516104249190613344565b60405180910390f35b61044760048036038101906104429190612a31565b611d90565b6040516104549190613227565b60405180910390f35b610477600480360381019061047291906128f2565b611e6a565b60405161048491906133c0565b60405180910390f35b6104a760048036038101906104a29190612770565b611e9b565b6040516104b49190613227565b60405180910390f35b6104d760048036038101906104d29190612747565b611f2f565b6040516104e49190613205565b60405180910390f35b6104f561248d565b60405161050291906131c8565b60405180910390f35b6105136124b1565b60006060806040518060a001604052808673ffffffffffffffffffffffffffffffffffffffff168152602001600160008873ffffffffffffffffffffffffffffffffffffffff1673ffffffffffffffffffffffffffffffffffffffff168152602001908152602001600020600101805461058c906135fb565b80601f01602080910402602001604051908101604052809291908181526020018280546105b8906135fb565b80156106055780601f106105da57610100808354040283529160200191610605565b820191906000526020600020905b8154815290600101906020018083116105e857829003601f168201915b50505050508152602001600160008873ffffffffffffffffffffffffffffffffffffffff1673ffffffffffffffffffffffffffffffffffffffff168152602001908152602001600020600201805461065c906135fb565b80601f0160208091040260200160405190810160405280929190818152602001828054610688906135fb565b80156106d55780601f106106aa576101008083540402835291602001916106d5565b820191906000526020600020905b8154815290600101906020018083116106b857829003601f168201915b50505050508152602001600160008873ffffffffffffffffffffffffffffffffffffffff1673ffffffffffffffffffffffffffffffffffffffff168152602001908152602001600020600301805461072c906135fb565b80601f0160208091040260200160405190810160405280929190818152602001828054610758906135fb565b80156107a55780601f1061077a576101008083540402835291602001916107a5565b820191906000526020600020905b81548152906001019060200180831161078857829003601f168201915b50505050508152602001600160008873ffffffffffffffffffffffffffffffffffffffff1673ffffffffffffffffffffffffffffffffffffffff16815260200190815260200160002060040160009054906101000a900460ff1615158152509350600560008673ffffffffffffffffffffffffffffffffffffffff1673ffffffffffffffffffffffffffffffffffffffff16815260200190815260200160002060009054906101000a900460ff16925061085e85611f2f565b9150600960008673ffffffffffffffffffffffffffffffffffffffff1673ffffffffffffffffffffffffffffffffffffffff1681526020019081526020016000208054806020026020016040519081016040528092919081815260200182805480156108e957602002820191906000526020600020905b8154815260200190600101908083116108d5575b505050505090509193509193565b600083826000600260008473ffffffffffffffffffffffffffffffffffffffff1673ffffffffffffffffffffffffffffffffffffffff168152602001908152602001600020600083815260200190815260200160002060009054906101000a900460ff16905060006109698433611e9b565b8061099f57508373ffffffffffffffffffffffffffffffffffffffff163373ffffffffffffffffffffffffffffffffffffffff16145b90508180156109ab5750805b6109ea576040517f08c379a00000000000000000000000000000000000000000000000000000000081526004016109e190613304565b60405180910390fd5b8673ffffffffffffffffffffffffffffffffffffffff168873ffffffffffffffffffffffffffffffffffffffff161415610a59576040517f08c379a0000000000000000000000000000000000000000000000000000000008152600401610a50906132e4565b60405180910390fd5b600073ffffffffffffffffffffffffffffffffffffffff168773ffffffffffffffffffffffffffffffffffffffff161415610ac9576040517f08c379a0000000000000000000000000000000000000000000000000000000008152600401610ac090613284565b60405180910390fd5b6000600260008a73ffffffffffffffffffffffffffffffffffffffff1673ffffffffffffffffffffffffffffffffffffffff168152602001908152602001600020600088815260200190815260200160002060006101000a81548160ff0219169083151502179055506001600260008973ffffffffffffffffffffffffffffffffffffffff1673ffffffffffffffffffffffffffffffffffffffff168152602001908152602001600020600088815260200190815260200160002060006101000a81548160ff02191690831515021790555060019450505050509392505050565b60008060009054906101000a900473ffffffffffffffffffffffffffffffffffffffff1673ffffffffffffffffffffffffffffffffffffffff168273ffffffffffffffffffffffffffffffffffffffff16149050919050565b6007602052826000526040600020828051602081018201805184825260208301602085012081835280955050505050508181548110610c4157600080fd5b90600052602060002001600092509250509054906101000a900473ffffffffffffffffffffffffffffffffffffffff1681565b60066020528160005260406000208181548110610c9057600080fd5b90600052602060002001600091509150508054610cac906135fb565b80601f0160208091040260200160405190810160405280929190818152602001828054610cd8906135fb565b8015610d255780601f10610cfa57610100808354040283529160200191610d25565b820191906000526020600020905b815481529060010190602001808311610d0857829003601f168201915b505050505081565b6060600160008373ffffffffffffffffffffffffffffffffffffffff1673ffffffffffffffffffffffffffffffffffffffff1681526020019081526020016000206003018054610d7c906135fb565b80601f0160208091040260200160405190810160405280929190818152602001828054610da8906135fb565b8015610df55780601f10610dca57610100808354040283529160200191610df5565b820191906000526020600020905b815481529060010190602001808311610dd857829003601f168201915b50505050509050919050565b6000806000905060005b600660003373ffffffffffffffffffffffffffffffffffffffff1673ffffffffffffffffffffffffffffffffffffffff16815260200190815260200160002080549050811015610f415784604051602001610e66919061319a565b60405160208183030381529060405280519060200120600660003373ffffffffffffffffffffffffffffffffffffffff1673ffffffffffffffffffffffffffffffffffffffff1681526020019081526020016000208281548110610ef3577f4e487b7100000000000000000000000000000000000000000000000000000000600052603260045260246000fd5b90600052602060002001604051602001610f0d91906131b1565b604051602081830303815290604052805190602001201415610f2e57600191505b8080610f399061362d565b915050610e0b565b5080610fc157600660003373ffffffffffffffffffffffffffffffffffffffff1673ffffffffffffffffffffffffffffffffffffffff16815260200190815260200160002084908060018154018082558091505060019003906000526020600020016000909190919091509080519060200190610fbf9291906124f8565b505b6001600860003373ffffffffffffffffffffffffffffffffffffffff1673ffffffffffffffffffffffffffffffffffffffff16815260200190815260200160002085604051611010919061319a565b908152602001604051809103902060006101000a81548160ff02191690831515021790555060005b835181101561127c57600760003373ffffffffffffffffffffffffffffffffffffffff1673ffffffffffffffffffffffffffffffffffffffff1681526020019081526020016000208560405161108e919061319a565b90815260200160405180910390208482815181106110d5577f4e487b7100000000000000000000000000000000000000000000000000000000600052603260045260246000fd5b6020026020010151600001519080600181540180825580915050600190039060005260206000200160009091909190916101000a81548173ffffffffffffffffffffffffffffffffffffffff021916908373ffffffffffffffffffffffffffffffffffffffff160217905550600860003373ffffffffffffffffffffffffffffffffffffffff1673ffffffffffffffffffffffffffffffffffffffff1681526020019081526020016000208560405161118e919061319a565b908152602001604051809103902060009054906101000a900460ff1680156111f757508381815181106111ea577f4e487b7100000000000000000000000000000000000000000000000000000000600052603260045260246000fd5b6020026020010151602001515b600860003373ffffffffffffffffffffffffffffffffffffffff1673ffffffffffffffffffffffffffffffffffffffff16815260200190815260200160002086604051611244919061319a565b908152602001604051809103902060006101000a81548160ff02191690831515021790555080806112749061362d565b915050611038565b50600191505092915050565b6008602052816000526040600020818051602081018201805184825260208301602085012081835280955050505050506000915091509054906101000a900460ff1681565b60008073ffffffffffffffffffffffffffffffffffffffff16600160003373ffffffffffffffffffffffffffffffffffffffff1673ffffffffffffffffffffffffffffffffffffffff16815260200190815260200160002060000160009054906101000a900473ffffffffffffffffffffffffffffffffffffffff1673ffffffffffffffffffffffffffffffffffffffff161461139f576040517f08c379a0000000000000000000000000000000000000000000000000000000008152600401611396906132a4565b60405180910390fd5b6040518060a001604052803373ffffffffffffffffffffffffffffffffffffffff16815260200185815260200184815260200183815260200160001515815250600160003373ffffffffffffffffffffffffffffffffffffffff1673ffffffffffffffffffffffffffffffffffffffff16815260200190815260200160002060008201518160000160006101000a81548173ffffffffffffffffffffffffffffffffffffffff021916908373ffffffffffffffffffffffffffffffffffffffff16021790555060208201518160010190805190602001906114819291906124f8565b50604082015181600201908051906020019061149e9291906124f8565b5060608201518160030190805190602001906114bb9291906124f8565b5060808201518160040160006101000a81548160ff0219169083151502179055509050506000600560003373ffffffffffffffffffffffffffffffffffffffff1673ffffffffffffffffffffffffffffffffffffffff16815260200190815260200160002060006101000a81548160ff0219169083151502179055506004339080600181540180825580915050600190039060005260206000200160009091909190916101000a81548173ffffffffffffffffffffffffffffffffffffffff021916908373ffffffffffffffffffffffffffffffffffffffff160217905550600190509392505050565b60056020528060005260406000206000915054906101000a900460ff1681565b60008060009054906101000a900473ffffffffffffffffffffffffffffffffffffffff1673ffffffffffffffffffffffffffffffffffffffff163373ffffffffffffffffffffffffffffffffffffffff161461162057600080fd5b60018060008473ffffffffffffffffffffffffffffffffffffffff1673ffffffffffffffffffffffffffffffffffffffff16815260200190815260200160002060040160006101000a81548160ff02191690831515021790555060019050919050565b60008273ffffffffffffffffffffffffffffffffffffffff163373ffffffffffffffffffffffffffffffffffffffff1614156116f4576040517f08c379a00000000000000000000000000000000000000000000000000000000081526004016116eb90613264565b60405180910390fd5b600073ffffffffffffffffffffffffffffffffffffffff168373ffffffffffffffffffffffffffffffffffffffff161415611764576040517f08c379a000000000000000000000000000000000000000000000000000000000815260040161175b90613324565b60405180910390fd5b81600360003373ffffffffffffffffffffffffffffffffffffffff1673ffffffffffffffffffffffffffffffffffffffff16815260200190815260200160002060008573ffffffffffffffffffffffffffffffffffffffff1673ffffffffffffffffffffffffffffffffffffffff16815260200190815260200160002060006101000a81548160ff0219169083151502179055506001905092915050565b6060600480548060200260200160405190810160405280929190818152602001828054801561188657602002820191906000526020600020905b8160009054906101000a900473ffffffffffffffffffffffffffffffffffffffff1673ffffffffffffffffffffffffffffffffffffffff168152602001906001019080831161183c575b5050505050905090565b60008060009054906101000a900473ffffffffffffffffffffffffffffffffffffffff1673ffffffffffffffffffffffffffffffffffffffff163373ffffffffffffffffffffffffffffffffffffffff16146118eb57600080fd5b6001600560008473ffffffffffffffffffffffffffffffffffffffff1673ffffffffffffffffffffffffffffffffffffffff16815260200190815260200160002060006101000a81548160ff02191690831515021790555060019050919050565b6000600160008373ffffffffffffffffffffffffffffffffffffffff1673ffffffffffffffffffffffffffffffffffffffff16815260200190815260200160002060040160009054906101000a900460ff169050919050565b6119ad6124b1565b81600160003373ffffffffffffffffffffffffffffffffffffffff1673ffffffffffffffffffffffffffffffffffffffff16815260200190815260200160002060000160009054906101000a900473ffffffffffffffffffffffffffffffffffffffff1673ffffffffffffffffffffffffffffffffffffffff168173ffffffffffffffffffffffffffffffffffffffff161480611ad85750600073ffffffffffffffffffffffffffffffffffffffff16600160003373ffffffffffffffffffffffffffffffffffffffff1673ffffffffffffffffffffffffffffffffffffffff16815260200190815260200160002060000160009054906101000a900473ffffffffffffffffffffffffffffffffffffffff1673ffffffffffffffffffffffffffffffffffffffff16145b611b17576040517f08c379a0000000000000000000000000000000000000000000000000000000008152600401611b0e906132c4565b60405180910390fd5b600160008473ffffffffffffffffffffffffffffffffffffffff1673ffffffffffffffffffffffffffffffffffffffff1681526020019081526020016000206040518060a00160405290816000820160009054906101000a900473ffffffffffffffffffffffffffffffffffffffff1673ffffffffffffffffffffffffffffffffffffffff1673ffffffffffffffffffffffffffffffffffffffff168152602001600182018054611bc7906135fb565b80601f0160208091040260200160405190810160405280929190818152602001828054611bf3906135fb565b8015611c405780601f10611c1557610100808354040283529160200191611c40565b820191906000526020600020905b815481529060010190602001808311611c2357829003601f168201915b50505050508152602001600282018054611c59906135fb565b80601f0160208091040260200160405190810160405280929190818152602001828054611c85906135fb565b8015611cd25780601f10611ca757610100808354040283529160200191611cd2565b820191906000526020600020905b815481529060010190602001808311611cb557829003601f168201915b50505050508152602001600382018054611ceb906135fb565b80601f0160208091040260200160405190810160405280929190818152602001828054611d17906135fb565b8015611d645780601f10611d3957610100808354040283529160200191611d64565b820191906000526020600020905b815481529060010190602001808311611d4757829003601f168201915b505050505081526020016004820160009054906101000a900460ff161515151581525050915050919050565b6000600960003373ffffffffffffffffffffffffffffffffffffffff1673ffffffffffffffffffffffffffffffffffffffff1681526020019081526020016000208290806001815401808255809150506001900390600052602060002001600090919091909150556001600260003373ffffffffffffffffffffffffffffffffffffffff1673ffffffffffffffffffffffffffffffffffffffff168152602001908152602001600020600084815260200190815260200160002060006101000a81548160ff02191690831515021790555060019050919050565b60096020528160005260406000208181548110611e8657600080fd5b90600052602060002001600091509150505481565b6000600360008473ffffffffffffffffffffffffffffffffffffffff1673ffffffffffffffffffffffffffffffffffffffff16815260200190815260200160002060008373ffffffffffffffffffffffffffffffffffffffff1673ffffffffffffffffffffffffffffffffffffffff16815260200190815260200160002060009054906101000a900460ff16905092915050565b60606000600660008473ffffffffffffffffffffffffffffffffffffffff1673ffffffffffffffffffffffffffffffffffffffff1681526020019081526020016000208054905067ffffffffffffffff811115611fb5577f4e487b7100000000000000000000000000000000000000000000000000000000600052604160045260246000fd5b604051908082528060200260200182016040528015611fee57816020015b611fdb61257e565b815260200190600190039081611fd35790505b50905060005b600660008573ffffffffffffffffffffffffffffffffffffffff1673ffffffffffffffffffffffffffffffffffffffff1681526020019081526020016000208054905081101561248357600660008573ffffffffffffffffffffffffffffffffffffffff1673ffffffffffffffffffffffffffffffffffffffff16815260200190815260200160002081815481106120b5577f4e487b7100000000000000000000000000000000000000000000000000000000600052603260045260246000fd5b9060005260206000200180546120ca906135fb565b80601f01602080910402602001604051908101604052809291908181526020018280546120f6906135fb565b80156121435780601f1061211857610100808354040283529160200191612143565b820191906000526020600020905b81548152906001019060200180831161212657829003601f168201915b5050505050828281518110612181577f4e487b7100000000000000000000000000000000000000000000000000000000600052603260045260246000fd5b602002602001015160000181905250600760008573ffffffffffffffffffffffffffffffffffffffff1673ffffffffffffffffffffffffffffffffffffffff168152602001908152602001600020600660008673ffffffffffffffffffffffffffffffffffffffff1673ffffffffffffffffffffffffffffffffffffffff1681526020019081526020016000208281548110612246577f4e487b7100000000000000000000000000000000000000000000000000000000600052603260045260246000fd5b9060005260206000200160405161225d91906131b1565b90815260200160405180910390208054806020026020016040519081016040528092919081815260200182805480156122eb57602002820191906000526020600020905b8160009054906101000a900473ffffffffffffffffffffffffffffffffffffffff1673ffffffffffffffffffffffffffffffffffffffff16815260200190600101908083116122a1575b5050505050828281518110612329577f4e487b7100000000000000000000000000000000000000000000000000000000600052603260045260246000fd5b602002602001015160200181905250600860008573ffffffffffffffffffffffffffffffffffffffff1673ffffffffffffffffffffffffffffffffffffffff168152602001908152602001600020600660008673ffffffffffffffffffffffffffffffffffffffff1673ffffffffffffffffffffffffffffffffffffffff16815260200190815260200160002082815481106123ee577f4e487b7100000000000000000000000000000000000000000000000000000000600052603260045260246000fd5b9060005260206000200160405161240591906131b1565b908152602001604051809103902060009054906101000a900460ff1682828151811061245a577f4e487b7100000000000000000000000000000000000000000000000000000000600052603260045260246000fd5b60200260200101516040019015159081151581525050808061247b9061362d565b915050611ff4565b5080915050919050565b60008054906101000a900473ffffffffffffffffffffffffffffffffffffffff1681565b6040518060a00160405280600073ffffffffffffffffffffffffffffffffffffffff1681526020016060815260200160608152602001606081526020016000151581525090565b828054612504906135fb565b90600052602060002090601f016020900481019282612526576000855561256d565b82601f1061253f57805160ff191683800117855561256d565b8280016001018555821561256d579182015b8281111561256c578251825591602001919060010190612551565b5b50905061257a91906125a1565b5090565b604051806060016040528060608152602001606081526020016000151581525090565b5b808211156125ba5760008160009055506001016125a2565b5090565b60006125d16125cc8461340c565b6133db565b905080838252602082019050828560408602820111156125f057600080fd5b60005b85811015612620578161260688826126e6565b8452602084019350604083019250506001810190506125f3565b5050509392505050565b600061263d61263884613438565b6133db565b90508281526020810184848401111561265557600080fd5b6126608482856135b9565b509392505050565b60008135905061267781613714565b92915050565b600082601f83011261268e57600080fd5b813561269e8482602086016125be565b91505092915050565b6000813590506126b68161372b565b92915050565b600082601f8301126126cd57600080fd5b81356126dd84826020860161262a565b91505092915050565b6000604082840312156126f857600080fd5b61270260406133db565b9050600061271284828501612668565b6000830152506020612726848285016126a7565b60208301525092915050565b60008135905061274181613742565b92915050565b60006020828403121561275957600080fd5b600061276784828501612668565b91505092915050565b6000806040838503121561278357600080fd5b600061279185828601612668565b92505060206127a285828601612668565b9150509250929050565b6000806000606084860312156127c157600080fd5b60006127cf86828701612668565b93505060206127e086828701612668565b92505060406127f186828701612732565b9150509250925092565b6000806040838503121561280e57600080fd5b600061281c85828601612668565b925050602061282d858286016126a7565b9150509250929050565b6000806040838503121561284a57600080fd5b600061285885828601612668565b925050602083013567ffffffffffffffff81111561287557600080fd5b612881858286016126bc565b9150509250929050565b6000806000606084860312156128a057600080fd5b60006128ae86828701612668565b935050602084013567ffffffffffffffff8111156128cb57600080fd5b6128d7868287016126bc565b92505060406128e886828701612732565b9150509250925092565b6000806040838503121561290557600080fd5b600061291385828601612668565b925050602061292485828601612732565b9150509250929050565b6000806040838503121561294157600080fd5b600083013567ffffffffffffffff81111561295b57600080fd5b612967858286016126bc565b925050602083013567ffffffffffffffff81111561298457600080fd5b6129908582860161267d565b9150509250929050565b6000806000606084860312156129af57600080fd5b600084013567ffffffffffffffff8111156129c957600080fd5b6129d5868287016126bc565b935050602084013567ffffffffffffffff8111156129f257600080fd5b6129fe868287016126bc565b925050604084013567ffffffffffffffff811115612a1b57600080fd5b612a27868287016126bc565b9150509250925092565b600060208284031215612a4357600080fd5b6000612a5184828501612732565b91505092915050565b6000612a668383612a9e565b60208301905092915050565b6000612a7e83836130a1565b905092915050565b6000612a92838361317c565b60208301905092915050565b612aa781613571565b82525050565b612ab681613571565b82525050565b6000612ac7826134ad565b612ad18185613500565b9350612adc83613468565b8060005b83811015612b0d578151612af48882612a5a565b9750612aff836134d9565b925050600181019050612ae0565b5085935050505092915050565b6000612b25826134ad565b612b2f8185613511565b9350612b3a83613468565b8060005b83811015612b6b578151612b528882612a5a565b9750612b5d836134d9565b925050600181019050612b3e565b5085935050505092915050565b6000612b83826134b8565b612b8d8185613522565b935083602082028501612b9f85613478565b8060005b85811015612bdb5784840389528151612bbc8582612a72565b9450612bc7836134e6565b925060208a01995050600181019050612ba3565b50829750879550505050505092915050565b6000612bf8826134c3565b612c028185613533565b9350612c0d83613488565b8060005b83811015612c3e578151612c258882612a86565b9750612c30836134f3565b925050600181019050612c11565b5085935050505092915050565b612c5481613583565b82525050565b612c6381613583565b82525050565b6000612c74826134ce565b612c7e8185613544565b9350612c8e8185602086016135c8565b612c9781613703565b840191505092915050565b6000612cad826134ce565b612cb78185613555565b9350612cc78185602086016135c8565b612cd081613703565b840191505092915050565b6000612ce6826134ce565b612cf08185613566565b9350612d008185602086016135c8565b80840191505092915050565b60008154612d19816135fb565b612d238186613566565b94506001821660008114612d3e5760018114612d4f57612d82565b60ff19831686528186019350612d82565b612d5885613498565b60005b83811015612d7a57815481890152600182019150602081019050612d5b565b838801955050505b50505092915050565b6000612d98603c83613555565b91507f5374616b65686f6c6465723a3a736574417070726f76616c466f72416c6c3a2060008301527f43616e6e6f742073657420617070726f76616c20666f722073656c66000000006020830152604082019050919050565b6000612dfe603a83613555565b91507f5374616b65686f6c6465723a3a7472616e7366657246726f6d3a2043616e6e6f60008301527f74207472616e7366657220746f206e756c6c20616464726573730000000000006020830152604082019050919050565b6000612e64604383613555565b91507f4d616e7566616374757265723a3a72656769737465724d616e7566616374757260008301527f65723a204d616e75666163747572657220616c7265616479207265676973746560208301527f72656400000000000000000000000000000000000000000000000000000000006040830152606082019050919050565b6000612ef0602983613555565b91507f4f6e6c79207374616b65686f6c6465722063616e20616363657373207468697360008301527f2066756e6374696f6e00000000000000000000000000000000000000000000006020830152604082019050919050565b6000612f56603283613555565b91507f5374616b65686f6c6465723a3a7472616e7366657246726f6d3a2043616e6e6f60008301527f74207472616e7366657220746f2073656c6600000000000000000000000000006020830152604082019050919050565b6000612fbc602f83613555565b91507f4f6e6c79206f776e6572206f7220617070726f7665642063616e20616363657360008301527f7320746869732066756e6374696f6e00000000000000000000000000000000006020830152604082019050919050565b6000613022604483613555565b91507f5374616b65686f6c6465723a3a736574417070726f76616c466f72416c6c3a2060008301527f43616e6e6f742073657420617070726f76616c20666f72206e756c6c2061646460208301527f72657373000000000000000000000000000000000000000000000000000000006040830152606082019050919050565b600060608301600083015184820360008601526130be8282612c69565b915050602083015184820360208601526130d88282612abc565b91505060408301516130ed6040860182612c4b565b508091505092915050565b600060a0830160008301516131106000860182612a9e565b50602083015184820360208601526131288282612c69565b915050604083015184820360408601526131428282612c69565b9150506060830151848203606086015261315c8282612c69565b91505060808301516131716080860182612c4b565b508091505092915050565b613185816135af565b82525050565b613194816135af565b82525050565b60006131a68284612cdb565b915081905092915050565b60006131bd8284612d0c565b915081905092915050565b60006020820190506131dd6000830184612aad565b92915050565b600060208201905081810360008301526131fd8184612b1a565b905092915050565b6000602082019050818103600083015261321f8184612b78565b905092915050565b600060208201905061323c6000830184612c5a565b92915050565b6000602082019050818103600083015261325c8184612ca2565b905092915050565b6000602082019050818103600083015261327d81612d8b565b9050919050565b6000602082019050818103600083015261329d81612df1565b9050919050565b600060208201905081810360008301526132bd81612e57565b9050919050565b600060208201905081810360008301526132dd81612ee3565b9050919050565b600060208201905081810360008301526132fd81612f49565b9050919050565b6000602082019050818103600083015261331d81612faf565b9050919050565b6000602082019050818103600083015261333d81613015565b9050919050565b6000602082019050818103600083015261335e81846130f8565b905092915050565b6000608082019050818103600083015261338081876130f8565b905061338f6020830186612c5a565b81810360408301526133a18185612b78565b905081810360608301526133b58184612bed565b905095945050505050565b60006020820190506133d5600083018461318b565b92915050565b6000604051905081810181811067ffffffffffffffff82111715613402576134016136d4565b5b8060405250919050565b600067ffffffffffffffff821115613427576134266136d4565b5b602082029050602081019050919050565b600067ffffffffffffffff821115613453576134526136d4565b5b601f19601f8301169050602081019050919050565b6000819050602082019050919050565b6000819050602082019050919050565b6000819050602082019050919050565b60008190508160005260206000209050919050565b600081519050919050565b600081519050919050565b600081519050919050565b600081519050919050565b6000602082019050919050565b6000602082019050919050565b6000602082019050919050565b600082825260208201905092915050565b600082825260208201905092915050565b600082825260208201905092915050565b600082825260208201905092915050565b600082825260208201905092915050565b600082825260208201905092915050565b600081905092915050565b600061357c8261358f565b9050919050565b60008115159050919050565b600073ffffffffffffffffffffffffffffffffffffffff82169050919050565b6000819050919050565b82818337600083830152505050565b60005b838110156135e65780820151818401526020810190506135cb565b838111156135f5576000848401525b50505050565b6000600282049050600182168061361357607f821691505b60208210811415613627576136266136a5565b5b50919050565b6000613638826135af565b91507fffffffffffffffffffffffffffffffffffffffffffffffffffffffffffffffff82141561366b5761366a613676565b5b600182019050919050565b7f4e487b7100000000000000000000000000000000000000000000000000000000600052601160045260246000fd5b7f4e487b7100000000000000000000000000000000000000000000000000000000600052602260045260246000fd5b7f4e487b7100000000000000000000000000000000000000000000000000000000600052604160045260246000fd5b6000601f19601f8301169050919050565b61371d81613571565b811461372857600080fd5b50565b61373481613583565b811461373f57600080fd5b50565b61374b816135af565b811461375657600080fd5b5056fea26469706673582212207c4f20487825b85ab9183879dfe9882c9b6532fccfe2956c8a402fed7c217fda64736f6c63430008000033",
  "immutableReferences": {},
  "source": "// SPDX-License-Identifier: Unlicensed\npragma solidity ^0.8.0;\nimport './Stakeholder.sol';\nimport './Farmer.sol';\n\ncontract Manufacturer is Stakeholder {\n\n  struct rawProduct{\n    string name;\n    address[] boughtFromIds;\n    bool isVerified;\n  }\n\n  struct supplier{\n    address id;\n    bool isVerified;\n  }\n\n  mapping(address => bool) public _isRenewableUsed;\n  mapping(address => string[]) public _rawProducts;\n  mapping(address => mapping(string => address[])) public _rawProductSuppliers;\n  mapping(address => mapping(string => bool)) public _rawProductVerified;\n  mapping(address => uint256[]) public _launchedProducts;\n\n  constructor() Stakeholder() {}\n\n  function register(\n    string memory _name, \n    string memory _location,\n    string memory _role\n  ) public override returns (bool) {\n    require (_stakeholders[msg.sender].id ==  address(0), \"Manufacturer::registerManufacturer: Manufacturer already registered\");\n    _stakeholders[msg.sender] = stakeholder(msg.sender, _name, _location, _role, false);\n    _isRenewableUsed[msg.sender] = false;\n    _stakeholderAddresses.push(msg.sender);\n    return true;\n  }\n\n  function addRawProduct(string memory _name, supplier[] memory _suppliers) public returns (bool){\n    bool productAlreadyAdded = false;\n    for (uint i = 0; i < _rawProducts[msg.sender].length; i++) {\n      if (keccak256(abi.encodePacked((_rawProducts[msg.sender][i]))) == keccak256(abi.encodePacked((_name)))) {\n        productAlreadyAdded = true;\n      }\n    }\n    if(!productAlreadyAdded){\n      _rawProducts[msg.sender].push(_name);\n    }\n    _rawProductVerified[msg.sender][_name] = true;\n    for(uint i =0; i < _suppliers.length; i++){\n      _rawProductSuppliers[msg.sender][_name].push(_suppliers[i].id);\n      _rawProductVerified[msg.sender][_name] = _rawProductVerified[msg.sender][_name] && _suppliers[i].isVerified;\n    }\n    return true;\n  }\n\n  function getManufacturerRawProductDetails(address _id) public view returns (rawProduct[] memory){\n    rawProduct[] memory rawProducts = new rawProduct[](_rawProducts[_id].length);\n    for (uint i = 0; i < _rawProducts[_id].length; i++) {\n      rawProducts[i].name = _rawProducts[_id][i];\n      rawProducts[i].boughtFromIds = _rawProductSuppliers[_id][_rawProducts[_id][i]];\n      rawProducts[i].isVerified = _rawProductVerified[_id][_rawProducts[_id][i]];\n    }\n    return rawProducts;\n  }\n\n  function getManufacturer(address id) public view returns (\n    stakeholder memory manufacturer,\n    bool isRenewableUsed,\n    rawProduct[] memory rawProducts,\n    uint256[] memory launchedProductIds\n  ){\n    manufacturer = stakeholder(id, _stakeholders[id].name, _stakeholders[id].location, _stakeholders[id].role, _stakeholders[id].isVerified);\n    isRenewableUsed = _isRenewableUsed[id];\n    rawProducts = getManufacturerRawProductDetails(id);\n    launchedProductIds = _launchedProducts[id];\n  }\n\n  function launchProduct(uint256 _id) public returns (bool) {\n    _launchedProducts[msg.sender].push(_id);\n    _stakeholderProductOwnership[msg.sender][_id] = true;\n    return true;\n  }\n\n  function updateEnergy(address id) public onlyAdmin returns (bool) {\n    _isRenewableUsed[id] = true;\n    return true;\n  }\n\n}",
  "sourcePath": "D:\\MIT Academy of Engineering\\Major Project\\Major_Project_Code\\supply-chain-dev\\src\\Smart-Contract\\Contracts\\Manufacturer.sol",
  "compiler": {
    "name": "solc",
    "version": "0.8.0+commit.c7dfd78e.Emscripten.clang"
  },
  "schemaVersion": "3.2.3",
  "updatedAt": "2023-06-08T14:15:34.321Z",
  "networkType": "ethereum",
  "devdoc": {
    "kind": "dev",
    "methods": {},
    "version": 1
  },
  "userdoc": {
    "kind": "user",
    "methods": {},
    "version": 1
  }
}