{
  "contractName": "Product",
  "abi": [
    {
      "inputs": [],
      "stateMutability": "nonpayable",
      "type": "constructor"
    },
    {
      "inputs": [
        {
          "internalType": "uint256",
          "name": "",
          "type": "uint256"
        }
      ],
      "name": "_itemIds",
      "outputs": [
        {
          "internalType": "uint256",
          "name": "",
          "type": "uint256"
        }
      ],
      "stateMutability": "view",
      "type": "function",
      "constant": true
    },
    {
      "inputs": [
        {
          "internalType": "uint256",
          "name": "",
          "type": "uint256"
        }
      ],
      "name": "_items",
      "outputs": [
        {
          "internalType": "uint256",
          "name": "id",
          "type": "uint256"
        },
        {
          "internalType": "string",
          "name": "title",
          "type": "string"
        },
        {
          "internalType": "address",
          "name": "manufacturer",
          "type": "address"
        },
        {
          "internalType": "address",
          "name": "currentOwner",
          "type": "address"
        },
        {
          "internalType": "address",
          "name": "lastOwner",
          "type": "address"
        },
        {
          "internalType": "uint256",
          "name": "rating",
          "type": "uint256"
        },
        {
          "internalType": "uint256",
          "name": "launchDate",
          "type": "uint256"
        },
        {
          "internalType": "string",
          "name": "image_url",
          "type": "string"
        }
      ],
      "stateMutability": "view",
      "type": "function",
      "constant": true
    },
    {
      "inputs": [
        {
          "internalType": "uint256",
          "name": "_id",
          "type": "uint256"
        },
        {
          "internalType": "string",
          "name": "_title",
          "type": "string"
        },
        {
          "components": [
            {
              "internalType": "string",
              "name": "name",
              "type": "string"
            },
            {
              "internalType": "bool",
              "name": "isVerified",
              "type": "bool"
            }
          ],
          "internalType": "struct Product.RawProduct[]",
          "name": "_rawProducts",
          "type": "tuple[]"
        },
        {
          "internalType": "string",
          "name": "image_url",
          "type": "string"
        }
      ],
      "name": "add",
      "outputs": [
        {
          "internalType": "bool",
          "name": "",
          "type": "bool"
        }
      ],
      "stateMutability": "nonpayable",
      "type": "function"
    },
    {
      "inputs": [
        {
          "internalType": "uint256",
          "name": "_id",
          "type": "uint256"
        }
      ],
      "name": "get",
      "outputs": [
        {
          "components": [
            {
              "internalType": "uint256",
              "name": "id",
              "type": "uint256"
            },
            {
              "internalType": "string",
              "name": "title",
              "type": "string"
            },
            {
              "internalType": "address",
              "name": "manufacturer",
              "type": "address"
            },
            {
              "internalType": "address",
              "name": "currentOwner",
              "type": "address"
            },
            {
              "internalType": "address",
              "name": "lastOwner",
              "type": "address"
            },
            {
              "internalType": "uint256",
              "name": "rating",
              "type": "uint256"
            },
            {
              "internalType": "uint256",
              "name": "launchDate",
              "type": "uint256"
            },
            {
              "internalType": "string",
              "name": "image_url",
              "type": "string"
            }
          ],
          "internalType": "struct Product.Item",
          "name": "item",
          "type": "tuple"
        },
        {
          "components": [
            {
              "internalType": "uint256",
              "name": "txId",
              "type": "uint256"
            },
            {
              "internalType": "address",
              "name": "from",
              "type": "address"
            },
            {
              "internalType": "address",
              "name": "to",
              "type": "address"
            },
            {
              "internalType": "uint256",
              "name": "date",
              "type": "uint256"
            }
          ],
          "internalType": "struct Product.Transaction[]",
          "name": "transactions",
          "type": "tuple[]"
        },
        {
          "components": [
            {
              "internalType": "uint256",
              "name": "id",
              "type": "uint256"
            },
            {
              "internalType": "uint256",
              "name": "date",
              "type": "uint256"
            },
            {
              "internalType": "uint256",
              "name": "rating",
              "type": "uint256"
            },
            {
              "internalType": "string",
              "name": "comment",
              "type": "string"
            },
            {
              "internalType": "address",
              "name": "reviewer",
              "type": "address"
            }
          ],
          "internalType": "struct Product.Review[]",
          "name": "reviews",
          "type": "tuple[]"
        },
        {
          "components": [
            {
              "internalType": "string",
              "name": "name",
              "type": "string"
            },
            {
              "internalType": "bool",
              "name": "isVerified",
              "type": "bool"
            }
          ],
          "internalType": "struct Product.RawProduct[]",
          "name": "rawProducts",
          "type": "tuple[]"
        }
      ],
      "stateMutability": "view",
      "type": "function",
      "constant": true
    },
    {
      "inputs": [
        {
          "internalType": "address",
          "name": "_to",
          "type": "address"
        },
        {
          "internalType": "uint256",
          "name": "_id",
          "type": "uint256"
        }
      ],
      "name": "transfer",
      "outputs": [
        {
          "internalType": "bool",
          "name": "",
          "type": "bool"
        }
      ],
      "stateMutability": "nonpayable",
      "type": "function"
    },
    {
      "inputs": [
        {
          "internalType": "uint256",
          "name": "_id",
          "type": "uint256"
        },
        {
          "internalType": "uint256",
          "name": "_rating",
          "type": "uint256"
        },
        {
          "internalType": "string",
          "name": "_comment",
          "type": "string"
        }
      ],
      "name": "addReview",
      "outputs": [
        {
          "internalType": "bool",
          "name": "",
          "type": "bool"
        }
      ],
      "stateMutability": "nonpayable",
      "type": "function"
    },
    {
      "inputs": [],
      "name": "getItemIds",
      "outputs": [
        {
          "internalType": "uint256[]",
          "name": "",
          "type": "uint256[]"
        }
      ],
      "stateMutability": "view",
      "type": "function",
      "constant": true
    },
    {
      "inputs": [],
      "name": "getProductsCount",
      "outputs": [
        {
          "internalType": "uint256",
          "name": "",
          "type": "uint256"
        }
      ],
      "stateMutability": "view",
      "type": "function",
      "constant": true
    },
    {
      "inputs": [],
      "name": "getTransactionsCount",
      "outputs": [
        {
          "internalType": "uint256",
          "name": "",
          "type": "uint256"
        }
      ],
      "stateMutability": "view",
      "type": "function",
      "constant": true
    },
    {
      "inputs": [],
      "name": "getReviewsCount",
      "outputs": [
        {
          "internalType": "uint256",
          "name": "",
          "type": "uint256"
        }
      ],
      "stateMutability": "view",
      "type": "function",
      "constant": true
    }
  ],
  "bytecode": "0x608060405234801561001057600080fd5b5060006007819055506000600881905550612910806100306000396000f3fe608060405234801561001057600080fd5b506004361061009e5760003560e01c80637967c929116100665780637967c929146101645780639507d39a14610194578063a9059cbb146101c7578063ef0614b9146101f7578063f8e7284a146102155761009e565b80631435ba3c146100a35780633e9e27aa146100c157806344029410146100f15780635786fd4014610128578063578cb8f914610146575b600080fd5b6100ab610245565b6040516100b8919061239d565b60405180910390f35b6100db60048036038101906100d69190611b71565b61024f565b6040516100e89190612281565b60405180910390f35b61010b60048036038101906101069190611a9d565b6104b7565b60405161011f9897969594939291906123b8565b60405180910390f35b61013061066f565b60405161013d919061239d565b60405180910390f35b61014e61067b565b60405161015b919061239d565b60405180910390f35b61017e60048036038101906101799190611ac6565b610685565b60405161018b9190612281565b60405180910390f35b6101ae60048036038101906101a99190611a9d565b6109ce565b6040516101be949392919061233c565b60405180910390f35b6101e160048036038101906101dc9190611a61565b611221565b6040516101ee9190612281565b60405180910390f35b6101ff611690565b60405161020c919061225f565b60405180910390f35b61022f600480360381019061022a9190611a9d565b6116e8565b60405161023c919061239d565b60405180910390f35b6000600854905090565b60003373ffffffffffffffffffffffffffffffffffffffff166001600086815260200190815260200160002060030160009054906101000a900473ffffffffffffffffffffffffffffffffffffffff1673ffffffffffffffffffffffffffffffffffffffff16146102f5576040517f08c379a00000000000000000000000000000000000000000000000000000000081526004016102ec9061231c565b60405180910390fd5b6040518060a0016040528060085481526020014281526020018481526020018381526020013373ffffffffffffffffffffffffffffffffffffffff16815250600260006008548152602001908152602001600020600082015181600001556020820151816001015560408201518160020155606082015181600301908051906020019061038392919061170c565b5060808201518160040160006101000a81548173ffffffffffffffffffffffffffffffffffffffff021916908373ffffffffffffffffffffffffffffffffffffffff160217905550905050600160056000868152602001908152602001600020805490506103f191906125e2565b836005600087815260200190815260200160002080549050600160008881526020019081526020016000206005015461042a9190612669565b61043491906125e2565b61043e9190612638565b6001600086815260200190815260200160002060050181905550600560008581526020019081526020016000206008549080600181540180825580915050600190039060005260206000200160009091909190915055600860008154809291906104a79061277f565b9190505550600190509392505050565b60016020528060005260406000206000915090508060000154908060010180546104e09061274d565b80601f016020809104026020016040519081016040528092919081815260200182805461050c9061274d565b80156105595780601f1061052e57610100808354040283529160200191610559565b820191906000526020600020905b81548152906001019060200180831161053c57829003601f168201915b5050505050908060020160009054906101000a900473ffffffffffffffffffffffffffffffffffffffff16908060030160009054906101000a900473ffffffffffffffffffffffffffffffffffffffff16908060040160009054906101000a900473ffffffffffffffffffffffffffffffffffffffff16908060050154908060060154908060070180546105ec9061274d565b80601f01602080910402602001604051908101604052809291908181526020018280546106189061274d565b80156106655780601f1061063a57610100808354040283529160200191610665565b820191906000526020600020905b81548152906001019060200180831161064857829003601f168201915b5050505050905088565b60008080549050905090565b6000600754905090565b600080339050600073ffffffffffffffffffffffffffffffffffffffff168173ffffffffffffffffffffffffffffffffffffffff1614156106fb576040517f08c379a00000000000000000000000000000000000000000000000000000000081526004016106f2906122dc565b60405180910390fd5b6040518061010001604052808781526020018681526020018273ffffffffffffffffffffffffffffffffffffffff1681526020018273ffffffffffffffffffffffffffffffffffffffff168152602001600073ffffffffffffffffffffffffffffffffffffffff1681526020016000815260200142815260200184815250600160008881526020019081526020016000206000820151816000015560208201518160010190805190602001906107b292919061170c565b5060408201518160020160006101000a81548173ffffffffffffffffffffffffffffffffffffffff021916908373ffffffffffffffffffffffffffffffffffffffff16021790555060608201518160030160006101000a81548173ffffffffffffffffffffffffffffffffffffffff021916908373ffffffffffffffffffffffffffffffffffffffff16021790555060808201518160040160006101000a81548173ffffffffffffffffffffffffffffffffffffffff021916908373ffffffffffffffffffffffffffffffffffffffff16021790555060a0820151816005015560c0820151816006015560e08201518160070190805190602001906108b892919061170c565b5090505060005b84518110156109975760066000888152602001908152602001600020858281518110610914577f4e487b7100000000000000000000000000000000000000000000000000000000600052603260045260246000fd5b60200260200101519080600181540180825580915050600190039060005260206000209060020201600090919091909150600082015181600001908051906020019061096192919061170c565b5060208201518160010160006101000a81548160ff0219169083151502179055505050808061098f9061277f565b9150506108bf565b5060008690806001815401808255809150506001900390600052602060002001600090919091909150556001915050949350505050565b6109d6611792565b6060806060600160008681526020019081526020016000206040518061010001604052908160008201548152602001600182018054610a149061274d565b80601f0160208091040260200160405190810160405280929190818152602001828054610a409061274d565b8015610a8d5780601f10610a6257610100808354040283529160200191610a8d565b820191906000526020600020905b815481529060010190602001808311610a7057829003601f168201915b505050505081526020016002820160009054906101000a900473ffffffffffffffffffffffffffffffffffffffff1673ffffffffffffffffffffffffffffffffffffffff1673ffffffffffffffffffffffffffffffffffffffff1681526020016003820160009054906101000a900473ffffffffffffffffffffffffffffffffffffffff1673ffffffffffffffffffffffffffffffffffffffff1673ffffffffffffffffffffffffffffffffffffffff1681526020016004820160009054906101000a900473ffffffffffffffffffffffffffffffffffffffff1673ffffffffffffffffffffffffffffffffffffffff1673ffffffffffffffffffffffffffffffffffffffff1681526020016005820154815260200160068201548152602001600782018054610bbc9061274d565b80601f0160208091040260200160405190810160405280929190818152602001828054610be89061274d565b8015610c355780601f10610c0a57610100808354040283529160200191610c35565b820191906000526020600020905b815481529060010190602001808311610c1857829003601f168201915b5050505050815250509350600460008681526020019081526020016000208054905067ffffffffffffffff811115610c96577f4e487b7100000000000000000000000000000000000000000000000000000000600052604160045260246000fd5b604051908082528060200260200182016040528015610ccf57816020015b610cbc611819565b815260200190600190039081610cb45790505b50925060005b6004600087815260200190815260200160002080549050811015610e7d5760036000600460008981526020019081526020016000208381548110610d42577f4e487b7100000000000000000000000000000000000000000000000000000000600052603260045260246000fd5b90600052602060002001548152602001908152602001600020604051806080016040529081600082015481526020016001820160009054906101000a900473ffffffffffffffffffffffffffffffffffffffff1673ffffffffffffffffffffffffffffffffffffffff1673ffffffffffffffffffffffffffffffffffffffff1681526020016002820160009054906101000a900473ffffffffffffffffffffffffffffffffffffffff1673ffffffffffffffffffffffffffffffffffffffff1673ffffffffffffffffffffffffffffffffffffffff168152602001600382015481525050848281518110610e5f577f4e487b7100000000000000000000000000000000000000000000000000000000600052603260045260246000fd5b60200260200101819052508080610e759061277f565b915050610cd5565b50600560008681526020019081526020016000208054905067ffffffffffffffff811115610ed4577f4e487b7100000000000000000000000000000000000000000000000000000000600052604160045260246000fd5b604051908082528060200260200182016040528015610f0d57816020015b610efa61186d565b815260200190600190039081610ef25790505b50915060005b60056000878152602001908152602001600020805490508110156111015760026000600560008981526020019081526020016000208381548110610f80577f4e487b7100000000000000000000000000000000000000000000000000000000600052603260045260246000fd5b906000526020600020015481526020019081526020016000206040518060a0016040529081600082015481526020016001820154815260200160028201548152602001600382018054610fd29061274d565b80601f0160208091040260200160405190810160405280929190818152602001828054610ffe9061274d565b801561104b5780601f106110205761010080835404028352916020019161104b565b820191906000526020600020905b81548152906001019060200180831161102e57829003601f168201915b505050505081526020016004820160009054906101000a900473ffffffffffffffffffffffffffffffffffffffff1673ffffffffffffffffffffffffffffffffffffffff1673ffffffffffffffffffffffffffffffffffffffff16815250508382815181106110e3577f4e487b7100000000000000000000000000000000000000000000000000000000600052603260045260246000fd5b602002602001018190525080806110f99061277f565b915050610f13565b5060066000868152602001908152602001600020805480602002602001604051908101604052809291908181526020016000905b8282101561121457838290600052602060002090600202016040518060400160405290816000820180546111689061274d565b80601f01602080910402602001604051908101604052809291908181526020018280546111949061274d565b80156111e15780601f106111b6576101008083540402835291602001916111e1565b820191906000526020600020905b8154815290600101906020018083116111c457829003601f168201915b505050505081526020016001820160009054906101000a900460ff16151515158152505081526020019060010190611135565b5050505090509193509193565b60008073ffffffffffffffffffffffffffffffffffffffff166001600084815260200190815260200160002060030160009054906101000a900473ffffffffffffffffffffffffffffffffffffffff1673ffffffffffffffffffffffffffffffffffffffff1614156112c8576040517f08c379a00000000000000000000000000000000000000000000000000000000081526004016112bf9061229c565b60405180910390fd5b8273ffffffffffffffffffffffffffffffffffffffff166001600084815260200190815260200160002060030160009054906101000a900473ffffffffffffffffffffffffffffffffffffffff1673ffffffffffffffffffffffffffffffffffffffff16141561136d576040517f08c379a0000000000000000000000000000000000000000000000000000000008152600401611364906122bc565b60405180910390fd5b600073ffffffffffffffffffffffffffffffffffffffff168373ffffffffffffffffffffffffffffffffffffffff1614156113dd576040517f08c379a00000000000000000000000000000000000000000000000000000000081526004016113d4906122fc565b60405180910390fd5b6001600083815260200190815260200160002060030160009054906101000a900473ffffffffffffffffffffffffffffffffffffffff166001600084815260200190815260200160002060040160006101000a81548173ffffffffffffffffffffffffffffffffffffffff021916908373ffffffffffffffffffffffffffffffffffffffff160217905550826001600084815260200190815260200160002060030160006101000a81548173ffffffffffffffffffffffffffffffffffffffff021916908373ffffffffffffffffffffffffffffffffffffffff160217905550604051806080016040528060075481526020016001600085815260200190815260200160002060040160009054906101000a900473ffffffffffffffffffffffffffffffffffffffff1673ffffffffffffffffffffffffffffffffffffffff1681526020016001600085815260200190815260200160002060030160009054906101000a900473ffffffffffffffffffffffffffffffffffffffff1673ffffffffffffffffffffffffffffffffffffffff168152602001428152506003600060075481526020019081526020016000206000820151816000015560208201518160010160006101000a81548173ffffffffffffffffffffffffffffffffffffffff021916908373ffffffffffffffffffffffffffffffffffffffff16021790555060408201518160020160006101000a81548173ffffffffffffffffffffffffffffffffffffffff021916908373ffffffffffffffffffffffffffffffffffffffff16021790555060608201518160030155905050600460008381526020019081526020016000206007549080600181540180825580915050600190039060005260206000200160009091909190915055600760008154809291906116819061277f565b91905055506001905092915050565b606060008054806020026020016040519081016040528092919081815260200182805480156116de57602002820191906000526020600020905b8154815260200190600101908083116116ca575b5050505050905090565b600081815481106116f857600080fd5b906000526020600020016000915090505481565b8280546117189061274d565b90600052602060002090601f01602090048101928261173a5760008555611781565b82601f1061175357805160ff1916838001178555611781565b82800160010185558215611781579182015b82811115611780578251825591602001919060010190611765565b5b50905061178e91906118b2565b5090565b6040518061010001604052806000815260200160608152602001600073ffffffffffffffffffffffffffffffffffffffff168152602001600073ffffffffffffffffffffffffffffffffffffffff168152602001600073ffffffffffffffffffffffffffffffffffffffff1681526020016000815260200160008152602001606081525090565b604051806080016040528060008152602001600073ffffffffffffffffffffffffffffffffffffffff168152602001600073ffffffffffffffffffffffffffffffffffffffff168152602001600081525090565b6040518060a0016040528060008152602001600081526020016000815260200160608152602001600073ffffffffffffffffffffffffffffffffffffffff1681525090565b5b808211156118cb5760008160009055506001016118b3565b5090565b60006118e26118dd84612475565b612444565b9050808382526020820190508260005b85811015611922578135850161190888826119e8565b8452602084019350602083019250506001810190506118f2565b5050509392505050565b600061193f61193a846124a1565b612444565b90508281526020810184848401111561195757600080fd5b61196284828561270b565b509392505050565b60008135905061197981612895565b92915050565b600082601f83011261199057600080fd5b81356119a08482602086016118cf565b91505092915050565b6000813590506119b8816128ac565b92915050565b600082601f8301126119cf57600080fd5b81356119df84826020860161192c565b91505092915050565b6000604082840312156119fa57600080fd5b611a046040612444565b9050600082013567ffffffffffffffff811115611a2057600080fd5b611a2c848285016119be565b6000830152506020611a40848285016119a9565b60208301525092915050565b600081359050611a5b816128c3565b92915050565b60008060408385031215611a7457600080fd5b6000611a828582860161196a565b9250506020611a9385828601611a4c565b9150509250929050565b600060208284031215611aaf57600080fd5b6000611abd84828501611a4c565b91505092915050565b60008060008060808587031215611adc57600080fd5b6000611aea87828801611a4c565b945050602085013567ffffffffffffffff811115611b0757600080fd5b611b13878288016119be565b935050604085013567ffffffffffffffff811115611b3057600080fd5b611b3c8782880161197f565b925050606085013567ffffffffffffffff811115611b5957600080fd5b611b65878288016119be565b91505092959194509250565b600080600060608486031215611b8657600080fd5b6000611b9486828701611a4c565b9350506020611ba586828701611a4c565b925050604084013567ffffffffffffffff811115611bc257600080fd5b611bce868287016119be565b9150509250925092565b6000611be48383612139565b905092915050565b6000611bf88383612176565b905092915050565b6000611c0c83836121ec565b60808301905092915050565b6000611c248383612241565b60208301905092915050565b611c39816126c3565b82525050565b611c48816126c3565b82525050565b6000611c5982612511565b611c63818561257c565b935083602082028501611c75856124d1565b8060005b85811015611cb15784840389528151611c928582611bd8565b9450611c9d83612548565b925060208a01995050600181019050611c79565b50829750879550505050505092915050565b6000611cce8261251c565b611cd8818561258d565b935083602082028501611cea856124e1565b8060005b85811015611d265784840389528151611d078582611bec565b9450611d1283612555565b925060208a01995050600181019050611cee565b50829750879550505050505092915050565b6000611d4382612527565b611d4d818561259e565b9350611d58836124f1565b8060005b83811015611d89578151611d708882611c00565b9750611d7b83612562565b925050600181019050611d5c565b5085935050505092915050565b6000611da182612532565b611dab81856125af565b9350611db683612501565b8060005b83811015611de7578151611dce8882611c18565b9750611dd98361256f565b925050600181019050611dba565b5085935050505092915050565b611dfd816126d5565b82525050565b611e0c816126d5565b82525050565b6000611e1d8261253d565b611e2781856125c0565b9350611e3781856020860161271a565b611e4081612884565b840191505092915050565b6000611e568261253d565b611e6081856125d1565b9350611e7081856020860161271a565b611e7981612884565b840191505092915050565b6000611e916029836125d1565b91507f50726f647563743a3a7472616e736665723a2050726f6475637420646f65732060008301527f6e6f7420657869737400000000000000000000000000000000000000000000006020830152604082019050919050565b6000611ef7602a836125d1565b91507f50726f647563743a3a7472616e736665723a2043616e6e6f74207472616e736660008301527f657220746f2073656c66000000000000000000000000000000000000000000006020830152604082019050919050565b6000611f5d6029836125d1565b91507f50726f647563743a3a6164643a204d616e7566616374757265722063616e6e6f60008301527f74206265206e756c6c00000000000000000000000000000000000000000000006020830152604082019050919050565b6000611fc36032836125d1565b91507f50726f647563743a3a7472616e736665723a2043616e6e6f74207472616e736660008301527f657220746f206e756c6c206164647265737300000000000000000000000000006020830152604082019050919050565b60006120296035836125d1565b91507f50726f647563743a3a6164645265766965773a204f6e6c792063757272656e7460008301527f206f776e65722063616e206164642072657669657700000000000000000000006020830152604082019050919050565b60006101008301600083015161209b6000860182612241565b50602083015184820360208601526120b38282611e12565b91505060408301516120c86040860182611c30565b5060608301516120db6060860182611c30565b5060808301516120ee6080860182611c30565b5060a083015161210160a0860182612241565b5060c083015161211460c0860182612241565b5060e083015184820360e086015261212c8282611e12565b9150508091505092915050565b600060408301600083015184820360008601526121568282611e12565b915050602083015161216b6020860182611df4565b508091505092915050565b600060a08301600083015161218e6000860182612241565b5060208301516121a16020860182612241565b5060408301516121b46040860182612241565b50606083015184820360608601526121cc8282611e12565b91505060808301516121e16080860182611c30565b508091505092915050565b6080820160008201516122026000850182612241565b5060208201516122156020850182611c30565b5060408201516122286040850182611c30565b50606082015161223b6060850182612241565b50505050565b61224a81612701565b82525050565b61225981612701565b82525050565b600060208201905081810360008301526122798184611d96565b905092915050565b60006020820190506122966000830184611e03565b92915050565b600060208201905081810360008301526122b581611e84565b9050919050565b600060208201905081810360008301526122d581611eea565b9050919050565b600060208201905081810360008301526122f581611f50565b9050919050565b6000602082019050818103600083015261231581611fb6565b9050919050565b600060208201905081810360008301526123358161201c565b9050919050565b600060808201905081810360008301526123568187612082565b9050818103602083015261236a8186611d38565b9050818103604083015261237e8185611cc3565b905081810360608301526123928184611c4e565b905095945050505050565b60006020820190506123b26000830184612250565b92915050565b6000610100820190506123ce600083018b612250565b81810360208301526123e0818a611e4b565b90506123ef6040830189611c3f565b6123fc6060830188611c3f565b6124096080830187611c3f565b61241660a0830186612250565b61242360c0830185612250565b81810360e08301526124358184611e4b565b90509998505050505050505050565b6000604051905081810181811067ffffffffffffffff8211171561246b5761246a612855565b5b8060405250919050565b600067ffffffffffffffff8211156124905761248f612855565b5b602082029050602081019050919050565b600067ffffffffffffffff8211156124bc576124bb612855565b5b601f19601f8301169050602081019050919050565b6000819050602082019050919050565b6000819050602082019050919050565b6000819050602082019050919050565b6000819050602082019050919050565b600081519050919050565b600081519050919050565b600081519050919050565b600081519050919050565b600081519050919050565b6000602082019050919050565b6000602082019050919050565b6000602082019050919050565b6000602082019050919050565b600082825260208201905092915050565b600082825260208201905092915050565b600082825260208201905092915050565b600082825260208201905092915050565b600082825260208201905092915050565b600082825260208201905092915050565b60006125ed82612701565b91506125f883612701565b9250827fffffffffffffffffffffffffffffffffffffffffffffffffffffffffffffffff0382111561262d5761262c6127c8565b5b828201905092915050565b600061264382612701565b915061264e83612701565b92508261265e5761265d6127f7565b5b828204905092915050565b600061267482612701565b915061267f83612701565b9250817fffffffffffffffffffffffffffffffffffffffffffffffffffffffffffffffff04831182151516156126b8576126b76127c8565b5b828202905092915050565b60006126ce826126e1565b9050919050565b60008115159050919050565b600073ffffffffffffffffffffffffffffffffffffffff82169050919050565b6000819050919050565b82818337600083830152505050565b60005b8381101561273857808201518184015260208101905061271d565b83811115612747576000848401525b50505050565b6000600282049050600182168061276557607f821691505b6020821081141561277957612778612826565b5b50919050565b600061278a82612701565b91507fffffffffffffffffffffffffffffffffffffffffffffffffffffffffffffffff8214156127bd576127bc6127c8565b5b600182019050919050565b7f4e487b7100000000000000000000000000000000000000000000000000000000600052601160045260246000fd5b7f4e487b7100000000000000000000000000000000000000000000000000000000600052601260045260246000fd5b7f4e487b7100000000000000000000000000000000000000000000000000000000600052602260045260246000fd5b7f4e487b7100000000000000000000000000000000000000000000000000000000600052604160045260246000fd5b6000601f19601f8301169050919050565b61289e816126c3565b81146128a957600080fd5b50565b6128b5816126d5565b81146128c057600080fd5b50565b6128cc81612701565b81146128d757600080fd5b5056fea2646970667358221220ed3fde3229d26f4c83333d67586b0c7646b7b73d38d7f0b53db60cd7b9a0f3ee64736f6c63430008000033",
  "immutableReferences": {},
  "source": "// SPDX-License-Identifier: Unlicensed\npragma solidity ^0.8.0;\ncontract Product {\n\n  struct Transaction{\n    uint256 txId;\n    address from;\n    address to;\n    uint date;\n  }\n\n  struct Review{\n    uint256 id;\n    uint date;\n    uint256 rating;\n    string comment;\n    address reviewer;\n  }\n\n  struct RawProduct{\n    string name;\n    bool isVerified;\n  }\n\n  struct Item{\n    uint256 id;\n    string title;\n    address manufacturer;\n    address currentOwner;\n    address lastOwner;\n    uint256 rating;\n    uint launchDate;\n    string image_url;\n  }\n\n  uint256[] public _itemIds;\n  mapping(uint256 => Item) public _items;\n  mapping(uint256 => Review) _reviews;\n  mapping(uint256 => Transaction) _transactions;\n\n  mapping(uint256 => uint256[]) _itemTransactions;\n  mapping(uint256 => uint256[]) _itemReviews;\n  mapping(uint256 => RawProduct[]) _itemRawProducts;\n\n  uint256 _nextTransactionId;\n  uint256 _nextReviewId;\n\n  constructor() {\n    _nextTransactionId = 0;\n    _nextReviewId = 0;\n  }\n\n  function add(uint256 _id, string memory _title, RawProduct[] memory _rawProducts, string memory image_url) public returns (bool){\n    address _manufacturer = msg.sender;\n    require (_manufacturer != address(0), \"Product::add: Manufacturer cannot be null\");\n    _items[_id] = Item({\n      id: _id,\n      title: _title,\n      manufacturer: _manufacturer,\n      currentOwner: _manufacturer,\n      lastOwner: address(0),\n      rating: 0,\n      launchDate: block.timestamp,\n      image_url: image_url\n    });\n    for(uint i = 0; i < _rawProducts.length; i++){\n      _itemRawProducts[_id].push(_rawProducts[i]);\n    }\n    _itemIds.push(_id);\n    return true;\n  }\n\n  function get(uint256 _id) public view returns (\n    Item memory item, \n    Transaction[] memory transactions, \n    Review[] memory reviews,\n    RawProduct[] memory rawProducts\n  ){\n    item = _items[_id];\n    transactions = new Transaction[](_itemTransactions[_id].length);\n    for (uint256 i = 0; i < _itemTransactions[_id].length; i++){\n      transactions[i] = _transactions[_itemTransactions[_id][i]];\n    }\n    reviews = new Review[](_itemReviews[_id].length);\n    for (uint256 i = 0; i < _itemReviews[_id].length; i++){\n      reviews[i] = _reviews[_itemReviews[_id][i]];\n    }\n    rawProducts = _itemRawProducts[_id];\n  }\n\n  function transfer(address _to, uint256 _id) public returns (bool){\n    require (_items[_id].currentOwner != address(0), \"Product::transfer: Product does not exist\");\n    require (_items[_id].currentOwner != _to, \"Product::transfer: Cannot transfer to self\");\n    require (_to != address(0), \"Product::transfer: Cannot transfer to null address\");\n    \n    _items[_id].lastOwner = _items[_id].currentOwner;\n    _items[_id].currentOwner = _to;\n    \n    _transactions[_nextTransactionId] = Transaction({ \n      txId: _nextTransactionId,\n      from: _items[_id].lastOwner,\n      to: _items[_id].currentOwner,\n      date: block.timestamp\n    });\n    _itemTransactions[_id].push(_nextTransactionId);\n    _nextTransactionId++;\n    return true;\n  }\n\n  function addReview(uint256 _id, uint256 _rating, string memory _comment) public returns (bool){\n    require (_items[_id].currentOwner == msg.sender, \"Product::addReview: Only current owner can add review\");\n    _reviews[_nextReviewId] = Review({\n      id: _nextReviewId,\n      date: block.timestamp,\n      rating: _rating,\n      comment: _comment,\n      reviewer: msg.sender\n    });\n    _items[_id].rating = (_items[_id].rating * _itemReviews[_id].length + _rating) / (_itemReviews[_id].length + 1);\n    _itemReviews[_id].push(_nextReviewId);\n    _nextReviewId++;\n    return true;\n  }\n\n  function getItemIds() public view returns (uint256[] memory){\n    return _itemIds;\n  }\n\n  function getProductsCount() public view returns (uint256){\n    return _itemIds.length;\n  }\n\n  function getTransactionsCount() public view returns (uint256){\n    return _nextTransactionId;\n  }\n\n  function getReviewsCount() public view returns (uint256){\n    return _nextReviewId;\n  }\n\n}",
  "sourcePath": "D:\\MIT Academy of Engineering\\Major Project\\Major_Project_Code\\supply-chain-dev\\src\\Smart-Contract\\Contracts\\Product.sol",
  "compiler": {
    "name": "solc",
    "version": "0.8.0+commit.c7dfd78e.Emscripten.clang"
  },
  "schemaVersion": "3.2.3",
  "updatedAt": "2023-06-08T14:15:34.331Z",
  "networkType": "ethereum",
  "devdoc": {
    "kind": "dev",
    "methods": {},
    "version": 1
  },
  "userdoc": {
    "kind": "user",
    "methods": {},
    "version": 1
  }
}