{
  "contractName": "Stakeholder",
  "abi": [
    {
      "inputs": [],
      "stateMutability": "nonpayable",
      "type": "constructor"
    },
    {
      "inputs": [],
      "name": "admin",
      "outputs": [
        {
          "internalType": "address",
          "name": "",
          "type": "address"
        }
      ],
      "stateMutability": "view",
      "type": "function",
      "constant": true
    },
    {
      "inputs": [
        {
          "internalType": "address",
          "name": "_account",
          "type": "address"
        }
      ],
      "name": "isAdmin",
      "outputs": [
        {
          "internalType": "bool",
          "name": "",
          "type": "bool"
        }
      ],
      "stateMutability": "view",
      "type": "function",
      "constant": true
    },
    {
      "inputs": [
        {
          "internalType": "string",
          "name": "_name",
          "type": "string"
        },
        {
          "internalType": "string",
          "name": "_location",
          "type": "string"
        },
        {
          "internalType": "string",
          "name": "_role",
          "type": "string"
        }
      ],
      "name": "register",
      "outputs": [
        {
          "internalType": "bool",
          "name": "",
          "type": "bool"
        }
      ],
      "stateMutability": "nonpayable",
      "type": "function"
    },
    {
      "inputs": [
        {
          "internalType": "address",
          "name": "_id",
          "type": "address"
        }
      ],
      "name": "get",
      "outputs": [
        {
          "components": [
            {
              "internalType": "address",
              "name": "id",
              "type": "address"
            },
            {
              "internalType": "string",
              "name": "name",
              "type": "string"
            },
            {
              "internalType": "string",
              "name": "location",
              "type": "string"
            },
            {
              "internalType": "string",
              "name": "role",
              "type": "string"
            },
            {
              "internalType": "bool",
              "name": "isVerified",
              "type": "bool"
            }
          ],
          "internalType": "struct Stakeholder.stakeholder",
          "name": "",
          "type": "tuple"
        }
      ],
      "stateMutability": "view",
      "type": "function",
      "constant": true
    },
    {
      "inputs": [
        {
          "internalType": "address",
          "name": "_operator",
          "type": "address"
        },
        {
          "internalType": "bool",
          "name": "_approved",
          "type": "bool"
        }
      ],
      "name": "setApprovalForAll",
      "outputs": [
        {
          "internalType": "bool",
          "name": "",
          "type": "bool"
        }
      ],
      "stateMutability": "nonpayable",
      "type": "function"
    },
    {
      "inputs": [
        {
          "internalType": "address",
          "name": "_owner",
          "type": "address"
        },
        {
          "internalType": "address",
          "name": "_operator",
          "type": "address"
        }
      ],
      "name": "isApprovedForAll",
      "outputs": [
        {
          "internalType": "bool",
          "name": "",
          "type": "bool"
        }
      ],
      "stateMutability": "view",
      "type": "function",
      "constant": true
    },
    {
      "inputs": [
        {
          "internalType": "address",
          "name": "_from",
          "type": "address"
        },
        {
          "internalType": "address",
          "name": "_to",
          "type": "address"
        },
        {
          "internalType": "uint256",
          "name": "_productId",
          "type": "uint256"
        }
      ],
      "name": "transferFrom",
      "outputs": [
        {
          "internalType": "bool",
          "name": "",
          "type": "bool"
        }
      ],
      "stateMutability": "nonpayable",
      "type": "function"
    },
    {
      "inputs": [
        {
          "internalType": "address",
          "name": "_id",
          "type": "address"
        }
      ],
      "name": "verify",
      "outputs": [
        {
          "internalType": "bool",
          "name": "",
          "type": "bool"
        }
      ],
      "stateMutability": "nonpayable",
      "type": "function"
    },
    {
      "inputs": [
        {
          "internalType": "address",
          "name": "_id",
          "type": "address"
        }
      ],
      "name": "isVerified",
      "outputs": [
        {
          "internalType": "bool",
          "name": "",
          "type": "bool"
        }
      ],
      "stateMutability": "view",
      "type": "function",
      "constant": true
    },
    {
      "inputs": [
        {
          "internalType": "address",
          "name": "_id",
          "type": "address"
        }
      ],
      "name": "getRole",
      "outputs": [
        {
          "internalType": "string",
          "name": "",
          "type": "string"
        }
      ],
      "stateMutability": "view",
      "type": "function",
      "constant": true
    },
    {
      "inputs": [],
      "name": "getAddresses",
      "outputs": [
        {
          "internalType": "address[]",
          "name": "",
          "type": "address[]"
        }
      ],
      "stateMutability": "view",
      "type": "function",
      "constant": true
    }
  ],
  "bytecode": "0x608060405234801561001057600080fd5b5033806000806101000a81548173ffffffffffffffffffffffffffffffffffffffff021916908373ffffffffffffffffffffffffffffffffffffffff16021790555050611c5a806100626000396000f3fe608060405234801561001057600080fd5b50600436106100a95760003560e01c8063a22cb46511610071578063a22cb4651461019e578063a39fac12146101ce578063b9209e33146101ec578063c2bc2efc1461021c578063e985e9c51461024c578063f851a4401461027c576100a9565b806323b872dd146100ae57806324d7806c146100de578063442767331461010e5780634cd08d031461013e57806363a9c3d71461016e575b600080fd5b6100c860048036038101906100c391906112b7565b61029a565b6040516100d591906118ae565b60405180910390f35b6100f860048036038101906100f39190611252565b61054d565b60405161010591906118ae565b60405180910390f35b61012860048036038101906101239190611252565b6105a6565b60405161013591906118c9565b60405180910390f35b61015860048036038101906101539190611342565b61067a565b60405161016591906118ae565b60405180910390f35b61018860048036038101906101839190611252565b6108fa565b60405161019591906118ae565b60405180910390f35b6101b860048036038101906101b39190611306565b6109b8565b6040516101c591906118ae565b60405180910390f35b6101d6610b37565b6040516101e3919061188c565b60405180910390f35b61020660048036038101906102019190611252565b610bc5565b60405161021391906118ae565b60405180910390f35b61023660048036038101906102319190611252565b610c1e565b60405161024391906119cb565b60405180910390f35b6102666004803603810190610261919061127b565b611009565b60405161027391906118ae565b60405180910390f35b61028461109d565b6040516102919190611871565b60405180910390f35b600083826000600260008473ffffffffffffffffffffffffffffffffffffffff1673ffffffffffffffffffffffffffffffffffffffff168152602001908152602001600020600083815260200190815260200160002060009054906101000a900460ff169050600061030c8433611009565b8061034257508373ffffffffffffffffffffffffffffffffffffffff163373ffffffffffffffffffffffffffffffffffffffff16145b905081801561034e5750805b61038d576040517f08c379a00000000000000000000000000000000000000000000000000000000081526004016103849061198b565b60405180910390fd5b8673ffffffffffffffffffffffffffffffffffffffff168873ffffffffffffffffffffffffffffffffffffffff1614156103fc576040517f08c379a00000000000000000000000000000000000000000000000000000000081526004016103f39061194b565b60405180910390fd5b600073ffffffffffffffffffffffffffffffffffffffff168773ffffffffffffffffffffffffffffffffffffffff16141561046c576040517f08c379a00000000000000000000000000000000000000000000000000000000081526004016104639061190b565b60405180910390fd5b6000600260008a73ffffffffffffffffffffffffffffffffffffffff1673ffffffffffffffffffffffffffffffffffffffff168152602001908152602001600020600088815260200190815260200160002060006101000a81548160ff0219169083151502179055506001600260008973ffffffffffffffffffffffffffffffffffffffff1673ffffffffffffffffffffffffffffffffffffffff168152602001908152602001600020600088815260200190815260200160002060006101000a81548160ff02191690831515021790555060019450505050509392505050565b60008060009054906101000a900473ffffffffffffffffffffffffffffffffffffffff1673ffffffffffffffffffffffffffffffffffffffff168273ffffffffffffffffffffffffffffffffffffffff16149050919050565b6060600160008373ffffffffffffffffffffffffffffffffffffffff1673ffffffffffffffffffffffffffffffffffffffff16815260200190815260200160002060030180546105f590611b3e565b80601f016020809104026020016040519081016040528092919081815260200182805461062190611b3e565b801561066e5780601f106106435761010080835404028352916020019161066e565b820191906000526020600020905b81548152906001019060200180831161065157829003601f168201915b50505050509050919050565b60008073ffffffffffffffffffffffffffffffffffffffff16600160003373ffffffffffffffffffffffffffffffffffffffff1673ffffffffffffffffffffffffffffffffffffffff16815260200190815260200160002060000160009054906101000a900473ffffffffffffffffffffffffffffffffffffffff1673ffffffffffffffffffffffffffffffffffffffff161461074c576040517f08c379a00000000000000000000000000000000000000000000000000000000081526004016107439061196b565b60405180910390fd5b6040518060a001604052803373ffffffffffffffffffffffffffffffffffffffff16815260200185815260200184815260200183815260200160001515815250600160003373ffffffffffffffffffffffffffffffffffffffff1673ffffffffffffffffffffffffffffffffffffffff16815260200190815260200160002060008201518160000160006101000a81548173ffffffffffffffffffffffffffffffffffffffff021916908373ffffffffffffffffffffffffffffffffffffffff160217905550602082015181600101908051906020019061082e9291906110c1565b50604082015181600201908051906020019061084b9291906110c1565b5060608201518160030190805190602001906108689291906110c1565b5060808201518160040160006101000a81548160ff0219169083151502179055509050506004339080600181540180825580915050600190039060005260206000200160009091909190916101000a81548173ffffffffffffffffffffffffffffffffffffffff021916908373ffffffffffffffffffffffffffffffffffffffff160217905550600190509392505050565b60008060009054906101000a900473ffffffffffffffffffffffffffffffffffffffff1673ffffffffffffffffffffffffffffffffffffffff163373ffffffffffffffffffffffffffffffffffffffff161461095557600080fd5b60018060008473ffffffffffffffffffffffffffffffffffffffff1673ffffffffffffffffffffffffffffffffffffffff16815260200190815260200160002060040160006101000a81548160ff02191690831515021790555060019050919050565b60008273ffffffffffffffffffffffffffffffffffffffff163373ffffffffffffffffffffffffffffffffffffffff161415610a29576040517f08c379a0000000000000000000000000000000000000000000000000000000008152600401610a20906118eb565b60405180910390fd5b600073ffffffffffffffffffffffffffffffffffffffff168373ffffffffffffffffffffffffffffffffffffffff161415610a99576040517f08c379a0000000000000000000000000000000000000000000000000000000008152600401610a90906119ab565b60405180910390fd5b81600360003373ffffffffffffffffffffffffffffffffffffffff1673ffffffffffffffffffffffffffffffffffffffff16815260200190815260200160002060008573ffffffffffffffffffffffffffffffffffffffff1673ffffffffffffffffffffffffffffffffffffffff16815260200190815260200160002060006101000a81548160ff0219169083151502179055506001905092915050565b60606004805480602002602001604051908101604052809291908181526020018280548015610bbb57602002820191906000526020600020905b8160009054906101000a900473ffffffffffffffffffffffffffffffffffffffff1673ffffffffffffffffffffffffffffffffffffffff1681526020019060010190808311610b71575b5050505050905090565b6000600160008373ffffffffffffffffffffffffffffffffffffffff1673ffffffffffffffffffffffffffffffffffffffff16815260200190815260200160002060040160009054906101000a900460ff169050919050565b610c26611147565b81600160003373ffffffffffffffffffffffffffffffffffffffff1673ffffffffffffffffffffffffffffffffffffffff16815260200190815260200160002060000160009054906101000a900473ffffffffffffffffffffffffffffffffffffffff1673ffffffffffffffffffffffffffffffffffffffff168173ffffffffffffffffffffffffffffffffffffffff161480610d515750600073ffffffffffffffffffffffffffffffffffffffff16600160003373ffffffffffffffffffffffffffffffffffffffff1673ffffffffffffffffffffffffffffffffffffffff16815260200190815260200160002060000160009054906101000a900473ffffffffffffffffffffffffffffffffffffffff1673ffffffffffffffffffffffffffffffffffffffff16145b610d90576040517f08c379a0000000000000000000000000000000000000000000000000000000008152600401610d879061192b565b60405180910390fd5b600160008473ffffffffffffffffffffffffffffffffffffffff1673ffffffffffffffffffffffffffffffffffffffff1681526020019081526020016000206040518060a00160405290816000820160009054906101000a900473ffffffffffffffffffffffffffffffffffffffff1673ffffffffffffffffffffffffffffffffffffffff1673ffffffffffffffffffffffffffffffffffffffff168152602001600182018054610e4090611b3e565b80601f0160208091040260200160405190810160405280929190818152602001828054610e6c90611b3e565b8015610eb95780601f10610e8e57610100808354040283529160200191610eb9565b820191906000526020600020905b815481529060010190602001808311610e9c57829003601f168201915b50505050508152602001600282018054610ed290611b3e565b80601f0160208091040260200160405190810160405280929190818152602001828054610efe90611b3e565b8015610f4b5780601f10610f2057610100808354040283529160200191610f4b565b820191906000526020600020905b815481529060010190602001808311610f2e57829003601f168201915b50505050508152602001600382018054610f6490611b3e565b80601f0160208091040260200160405190810160405280929190818152602001828054610f9090611b3e565b8015610fdd5780601f10610fb257610100808354040283529160200191610fdd565b820191906000526020600020905b815481529060010190602001808311610fc057829003601f168201915b505050505081526020016004820160009054906101000a900460ff161515151581525050915050919050565b6000600360008473ffffffffffffffffffffffffffffffffffffffff1673ffffffffffffffffffffffffffffffffffffffff16815260200190815260200160002060008373ffffffffffffffffffffffffffffffffffffffff1673ffffffffffffffffffffffffffffffffffffffff16815260200190815260200160002060009054906101000a900460ff16905092915050565b60008054906101000a900473ffffffffffffffffffffffffffffffffffffffff1681565b8280546110cd90611b3e565b90600052602060002090601f0160209004810192826110ef5760008555611136565b82601f1061110857805160ff1916838001178555611136565b82800160010185558215611136579182015b8281111561113557825182559160200191906001019061111a565b5b509050611143919061118e565b5090565b6040518060a00160405280600073ffffffffffffffffffffffffffffffffffffffff1681526020016060815260200160608152602001606081526020016000151581525090565b5b808211156111a757600081600090555060010161118f565b5090565b60006111be6111b984611a1e565b6119ed565b9050828152602081018484840111156111d657600080fd5b6111e1848285611afc565b509392505050565b6000813590506111f881611bdf565b92915050565b60008135905061120d81611bf6565b92915050565b600082601f83011261122457600080fd5b81356112348482602086016111ab565b91505092915050565b60008135905061124c81611c0d565b92915050565b60006020828403121561126457600080fd5b6000611272848285016111e9565b91505092915050565b6000806040838503121561128e57600080fd5b600061129c858286016111e9565b92505060206112ad858286016111e9565b9150509250929050565b6000806000606084860312156112cc57600080fd5b60006112da868287016111e9565b93505060206112eb868287016111e9565b92505060406112fc8682870161123d565b9150509250925092565b6000806040838503121561131957600080fd5b6000611327858286016111e9565b9250506020611338858286016111fe565b9150509250929050565b60008060006060848603121561135757600080fd5b600084013567ffffffffffffffff81111561137157600080fd5b61137d86828701611213565b935050602084013567ffffffffffffffff81111561139a57600080fd5b6113a686828701611213565b925050604084013567ffffffffffffffff8111156113c357600080fd5b6113cf86828701611213565b9150509250925092565b60006113e583836113f1565b60208301905092915050565b6113fa81611ab4565b82525050565b61140981611ab4565b82525050565b600061141a82611a5e565b6114248185611a81565b935061142f83611a4e565b8060005b8381101561146057815161144788826113d9565b975061145283611a74565b925050600181019050611433565b5085935050505092915050565b61147681611ac6565b82525050565b61148581611ac6565b82525050565b600061149682611a69565b6114a08185611a92565b93506114b0818560208601611b0b565b6114b981611bce565b840191505092915050565b60006114cf82611a69565b6114d98185611aa3565b93506114e9818560208601611b0b565b6114f281611bce565b840191505092915050565b600061150a603c83611aa3565b91507f5374616b65686f6c6465723a3a736574417070726f76616c466f72416c6c3a2060008301527f43616e6e6f742073657420617070726f76616c20666f722073656c66000000006020830152604082019050919050565b6000611570603a83611aa3565b91507f5374616b65686f6c6465723a3a7472616e7366657246726f6d3a2043616e6e6f60008301527f74207472616e7366657220746f206e756c6c20616464726573730000000000006020830152604082019050919050565b60006115d6602983611aa3565b91507f4f6e6c79207374616b65686f6c6465722063616e20616363657373207468697360008301527f2066756e6374696f6e00000000000000000000000000000000000000000000006020830152604082019050919050565b600061163c603283611aa3565b91507f5374616b65686f6c6465723a3a7472616e7366657246726f6d3a2043616e6e6f60008301527f74207472616e7366657220746f2073656c6600000000000000000000000000006020830152604082019050919050565b60006116a2603583611aa3565b91507f5374616b65686f6c6465723a3a72656769737465723a205374616b65686f6c6460008301527f657220616c7265616479207265676973746572656400000000000000000000006020830152604082019050919050565b6000611708602f83611aa3565b91507f4f6e6c79206f776e6572206f7220617070726f7665642063616e20616363657360008301527f7320746869732066756e6374696f6e00000000000000000000000000000000006020830152604082019050919050565b600061176e604483611aa3565b91507f5374616b65686f6c6465723a3a736574417070726f76616c466f72416c6c3a2060008301527f43616e6e6f742073657420617070726f76616c20666f72206e756c6c2061646460208301527f72657373000000000000000000000000000000000000000000000000000000006040830152606082019050919050565b600060a08301600083015161180560008601826113f1565b506020830151848203602086015261181d828261148b565b91505060408301518482036040860152611837828261148b565b91505060608301518482036060860152611851828261148b565b9150506080830151611866608086018261146d565b508091505092915050565b60006020820190506118866000830184611400565b92915050565b600060208201905081810360008301526118a6818461140f565b905092915050565b60006020820190506118c3600083018461147c565b92915050565b600060208201905081810360008301526118e381846114c4565b905092915050565b60006020820190508181036000830152611904816114fd565b9050919050565b6000602082019050818103600083015261192481611563565b9050919050565b60006020820190508181036000830152611944816115c9565b9050919050565b600060208201905081810360008301526119648161162f565b9050919050565b6000602082019050818103600083015261198481611695565b9050919050565b600060208201905081810360008301526119a4816116fb565b9050919050565b600060208201905081810360008301526119c481611761565b9050919050565b600060208201905081810360008301526119e581846117ed565b905092915050565b6000604051905081810181811067ffffffffffffffff82111715611a1457611a13611b9f565b5b8060405250919050565b600067ffffffffffffffff821115611a3957611a38611b9f565b5b601f19601f8301169050602081019050919050565b6000819050602082019050919050565b600081519050919050565b600081519050919050565b6000602082019050919050565b600082825260208201905092915050565b600082825260208201905092915050565b600082825260208201905092915050565b6000611abf82611ad2565b9050919050565b60008115159050919050565b600073ffffffffffffffffffffffffffffffffffffffff82169050919050565b6000819050919050565b82818337600083830152505050565b60005b83811015611b29578082015181840152602081019050611b0e565b83811115611b38576000848401525b50505050565b60006002820490506001821680611b5657607f821691505b60208210811415611b6a57611b69611b70565b5b50919050565b7f4e487b7100000000000000000000000000000000000000000000000000000000600052602260045260246000fd5b7f4e487b7100000000000000000000000000000000000000000000000000000000600052604160045260246000fd5b6000601f19601f8301169050919050565b611be881611ab4565b8114611bf357600080fd5b50565b611bff81611ac6565b8114611c0a57600080fd5b50565b611c1681611af2565b8114611c2157600080fd5b5056fea2646970667358221220eb025dd276dd63d8806859760040ea11b62d7582465635975cfe4cb87248c13164736f6c63430008000033",
  "immutableReferences": {},
  "source": "// SPDX-License-Identifier: Unlicensed\npragma solidity ^0.8.0;\nimport './Admin.sol';\ncontract Stakeholder is Admin{\n  \n  struct stakeholder{\n    address id;\n    string name;\n    string location;\n    string role;\n    bool isVerified;\n  }\n\n  mapping(address => stakeholder) _stakeholders;\n  mapping(address => mapping(uint256 => bool)) _stakeholderProductOwnership;\n  mapping(address => mapping(address => bool)) _operatorApprovals;\n  address[] _stakeholderAddresses;\n\n  constructor() Admin(msg.sender){}\n\n  function register(\n    string memory _name,\n    string memory _location,\n    string memory _role\n  ) public virtual returns (bool) {\n    require (_stakeholders[msg.sender].id ==  address(0), \"Stakeholder::register: Stakeholder already registered\");\n    _stakeholders[msg.sender] = stakeholder(msg.sender, _name, _location, _role, false);\n    _stakeholderAddresses.push(msg.sender);\n    return true;\n  }\n  \n  function get(address _id) public view onlyStakeholder(_id) returns(stakeholder memory){\n    return _stakeholders[_id];\n  }\n\n  function setApprovalForAll(\n    address _operator,\n    bool _approved\n  ) public virtual returns (bool){\n    require (msg.sender != _operator, \"Stakeholder::setApprovalForAll: Cannot set approval for self\");\n    require (_operator != address(0), \"Stakeholder::setApprovalForAll: Cannot set approval for null address\");\n    _operatorApprovals[msg.sender][_operator] = _approved;\n    return true;\n  }\n\n  function isApprovedForAll(\n    address _owner,\n    address _operator\n  ) public view virtual returns (bool){\n    return _operatorApprovals[_owner][_operator];\n  }\n\n  function transferFrom(\n    address _from,\n    address _to,\n    uint256 _productId\n  ) public virtual onlyOwnerOrApproved(_from, _productId) returns (bool){\n    require (_from != _to, \"Stakeholder::transferFrom: Cannot transfer to self\");\n    require (_to != address(0), \"Stakeholder::transferFrom: Cannot transfer to null address\");\n    _stakeholderProductOwnership[_from][_productId] = false;\n    _stakeholderProductOwnership[_to][_productId] = true;\n    return true;\n  }\n\n  function verify(address _id) public onlyAdmin returns (bool){\n    _stakeholders[_id].isVerified = true;\n    return true;\n  }\n\n  function isVerified(address _id) public view returns (bool){\n    return _stakeholders[_id].isVerified;\n  }\n\n  function getRole(address _id) public view returns (string memory){\n    return _stakeholders[_id].role;\n  }\n\n  function getAddresses() public view returns (address[] memory){\n    return _stakeholderAddresses;\n  }\n\n  modifier onlyStakeholder(address _id){\n    require(\n      _id == _stakeholders[msg.sender].id || _stakeholders[msg.sender].id == address(0), \n      \"Only stakeholder can access this function\"\n    );\n    _;\n  }\n\n  modifier onlyOwnerOrApproved(address _from, uint256 _productId){\n    bool _from_the_product_owner = _stakeholderProductOwnership[_from][_productId];\n    bool _approved_or_product_owner = isApprovedForAll(_from, msg.sender) || msg.sender == _from;\n\n    require( _from_the_product_owner && _approved_or_product_owner, \"Only owner or approved can access this function\");\n    _;\n  }\n\n}",
  "sourcePath": "D:\\MIT Academy of Engineering\\Major Project\\Major_Project_Code\\supply-chain-dev\\src\\Smart-Contract\\Contracts\\Stakeholder.sol",
  "compiler": {
    "name": "solc",
    "version": "0.8.0+commit.c7dfd78e.Emscripten.clang"
  },
  "schemaVersion": "3.2.3",
  "updatedAt": "2023-06-08T14:15:34.340Z",
  "networkType": "ethereum",
  "devdoc": {
    "kind": "dev",
    "methods": {},
    "version": 1
  },
  "userdoc": {
    "kind": "user",
    "methods": {},
    "version": 1
  }
}